:020000040000fa
:080000000001040000000000f3
:020000040000fa
:04000800760200007c
:020000040000fa
:04000c007602000078
:020000040000fa
:040010007602000074
:020000040000fa
:040014007602000070
:020000040000fa
:04001800760200006c
:020000040000fa
:04001c007602000068
:020000040000fa
:040020007602000064
:020000040000fa
:040024007602000060
:020000040000fa
:04002800760200005c
:020000040000fa
:04002c007602000058
:020000040000fa
:040030007602000054
:020000040000fa
:04003400cc010000fb
:020000040000fa
:04003800760200004c
:020000040000fa
:04003c007602000048
:020000040000fa
:040040007602000044
:020000040000fa
:040044007602000040
:020000040000fa
:04004800760200003c
:020000040000fa
:04004c007602000038
:020000040000fa
:040050007602000034
:020000040000fa
:04005400180200008e
:020000040000fa
:04005800760200002c
:020000040000fa
:04005c007602000028
:020000040000fa
:040060007602000024
:020000040000fa
:040064007602000020
:020000040000fa
:04006800760200001c
:020000040000fa
:04006c007602000018
:020000040000fa
:040070007602000014
:020000040000fa
:040074007602000010
:020000040000fa
:04007800760200000c
:020000040000fa
:04007c007602000008
:020000040000fa
:040080007602000004
:020000040000fa
:040084007602000000
:020000040000fa
:04008800e201000091
:020000040000fa
:04008c00100200005e
:020000040000fa
:0400900076020000f4
:020000040000fa
:0400940076020000f0
:020000040000fa
:0400980076020000ec
:020000040000fa
:04009c0076020000e8
:020000040000fa
:0400a00076020000e4
:020000040000fa
:0400a40076020000e0
:020000040000fa
:0400a80076020000dc
:020000040000fa
:0400ac0076020000d8
:020000040000fa
:0400b00076020000d4
:020000040000fa
:0400b40076020000d0
:020000040000fa
:0400b80076020000cc
:020000040000fa
:0400bc0076020000c8
:020000040000fa
:0400c00076020000c4
:020000040000fa
:0400c40076020000c0
:020000040000fa
:0400c80076020000bc
:020000040000fa
:0400cc0076020000b8
:020000040000fa
:0400d00076020000b4
:020000040000fa
:0400d40076020000b0
:020000040000fa
:0400d80076020000ac
:020000040000fa
:04010800760200007b
:020000040000fa
:04010c007602000077
:020000040000fa
:040110007602000073
:020000040000fa
:04011400760200006f
:020000040000fa
:04011800760200006b
:020000040000fa
:04011c007602000067
:020000040000fa
:040120007602000063
:020000040000fa
:04012400760200005f
:020000040000fa
:04012800760200005b
:020000040000fa
:04012c007602000057
:020000040000fa
:040130007602000053
:020000040000fa
:04013400760200004f
:020000040000fa
:04013800760200004b
:020000040000fa
:04013c007602000047
:020000040000fa
:040140007602000043
:020000040000fa
:04014400760200003f
:020000040000fa
:04014800760200003b
:020000040000fa
:04014c007602000037
:020000040000fa
:040150007602000033
:020000040000fa
:04015400760200002f
:020000040000fa
:04015800760200002b
:020000040000fa
:04015c007602000027
:020000040000fa
:040160007602000023
:020000040000fa
:04016400760200001f
:020000040000fa
:04016800760200001b
:020000040000fa
:04016c007602000017
:020000040000fa
:040170007602000013
:020000040000fa
:04017400760200000f
:020000040000fa
:04017800760200000b
:020000040000fa
:04017c007602000007
:020000040000fa
:040180007602000003
:020000040000fa
:0401840076020000ff
:020000040000fa
:0401880076020000fb
:020000040000fa
:04018c0076020000f7
:020000040000fa
:0401900076020000f3
:020000040000fa
:0401940076020000ef
:020000040000fa
:0401980076020000eb
:020000040000fa
:04019c0076020000e7
:020000040000fa
:0401a00076020000e3
:020000040000fa
:0401a40076020000df
:020000040000fa
:0401a80076020000db
:020000040000fa
:0401ac0076020000d7
:020000040000fa
:0401b00076020000d3
:020000040000fa
:0401b40076020000cf
:020000040000fa
:0401b80076020000cb
:020000040000fa
:0401bc0076020000c7
:020000040000fa
:0401c00076020000c3
:020000040000fa
:0401c40076020000bf
:020000040000fa
:0401c80076020000bb
:020000040000fa
:0401cc0076020000b7
:020000040000fa
:0401d00076020000b3
:020000040000fa
:0401d40076020000af
:020000040000fa
:0401d80076020000ab
:020000040000fa
:100200006f9320000eff20000e0188000000000008
:10021000000020000000e000020032000001200089
:100220002002880014000700b20007000000e00070
:1002300003003a00a07b21000100200002003700eb
:100240000000200001002000810f7000010032003a
:1002500014000700000020000000e000020032004f
:100260000000020000000000a616020000000000ce
:100270000040da000000fe004440a90060002000b9
:100280000000e0000300320000002000a001880010
:100290004440a800000006008a1f78008b1f7800e9
:1002a0000000060091018800800478000000eb0047
:1002b0001a003700e284440032a0b4009905ba0065
:1002c000e284440032a0b4009906ba00e2844400fb
:1002d00032a0b4000006eb00476fde00fd07b2005d
:1002e000636ce10003003a00ebff07000000eb0045
:1002f0000a003700606ce10004003a00005deb008a
:100300008b05e900fdff3e00040037006168e10055
:10031000010032000086eb000b00070019c7ba008d
:100320001905ba000e04e00003003a000a00e000dc
:10033000e0ff3a0000000600fe07b2009e018800c0
:100340008a047800f5ff3700395dba008b05e900b3
:100350000c003200295dba008b05e900080032006c
:100360000c00e00003003a00e284440032a0b40034
:10037000f5ff370019ddba008b05e900faff3a00f6
:100380008904e800e184440032a0b40000000600c3
:1003900000000000000000003400f800881f780012
:1003a00008002000a80188004f0478000000fa002f
:1003b0008460a900a042a8000080fa003400f9007f
:1003c000004006003600f800809fbe00829fbe00fd
:1003d000849fbe00869fbe000200fa008700a9002d
:1003e00002003700e0108000004f7800c01080004d
:1003f000610060000000e000faff3a001e40780053
:10040000da0907000080fa004f03be004f02be0069
:100410004f01be004f00be003600f900004006004c
:100420000000fa008720a9000080fa0000400600c2
:100430003600f800809fbe00829fbe00849fbe00f1
:10044000869fbe001000fa000022250081a523002f
:10045000008fbe0000022000200798008560a900e0
:10046000a042a900101480008000eb0026000700c5
:1004700082862e00f3b9230025000700660147009d
:10048000809fbe0020532900801f78000200780062
:1004900006020700e68757006600470080007800e4
:1004a0000e007800f2000700914380004006200013
:1004b000808f500003003a000e007800900907007a
:1004c0007228ef00904380000000e800904388000d
:1004d0000080fa004f03be004f02be004f01be0075
:1004e0004f00be003600f900004006000040da0070
:1004f0000000fe0000000500140020003800370056
:10050000f4ff2f00360037006011b8004f003700ad
:10051000889fbe008a9fbe008c1f7800a000070045
:10052000a700330003866c006450e1002400320011
:100530006420e100270032006150e1002200320017
:100540006120e100210032008b854200eb07b10001
:100550000134b800003ab8000804420089844a0017
:10056000013ab8000030b8008880400009014a0014
:10057000040033000000400081804800020149006f
:100580008b05e900c909dd0083017000010032001c
:1005900013002000c814de004814dd004709de0007
:1005a0001200b200c808de00088470005600070080
:1005b00001f0a1000cf0a70001f0a00089003700b5
:1005c0006120e1008b0032000801be000200be0085
:1005d000f7ff37006150e100fcff3a00850037006b
:1005e000889fbe008a9fbe00841f78006c000700b1
:1005f0004f00780011003300f0ff2f00838f6c0054
:1006000006003b00040565000a00a700080037004b
:1006100009f0a6001000200008003700820f5400e7
:10062000838f5c00030039001000200001003e00b1
:100630000000200009f0a7000000ea004f05be00fe
:100640004f04be000000e00000000600889fbe00ce
:100650008a9fbe0000827000040271000482710053
:10066000260032000004be000200be006011b80087
:100670006b092000950220000182cf000a0039009a
:100680000541b1000082cf00070039000541b100eb
:100690000982cf00040039000541b1000882cf0073
:1006a000010039000541b10005425200120032003c
:1006b0000a003b0082817100610164008100d10069
:1006c0000080d3008984d3000884d3008b05e80020
:1006d0000442e800f7ff3a0007003700080444002e
:1006e00089844c0000004800818048008b05e900a7
:1006f0000442e900f9ff3a00030007004f05be007d
:100700004f04be00000006008100200061805500fb
:100710000b003d000b00200061fe2f000100e100f6
:100720001d00340082817100610164008904d100e0
:100730000884d3000000e800faff3a0071002000ae
:1007400061006400030070000200600009003200d4
:1007500061044400e0844c000988a50005003200d3
:100760008b05e8006808e10002003a008904d10026
:100770000884d300f20f20000258e10005003d007c
:10078000c75ddd00f907b2008980750008007800b8
:10079000000006000bf827008b0078000000050021
:1007a0000004be00160007000003be000405be00e2
:1007b0000200be0012000700844f75000000060012
:1007c0000200be006450e100050036006420e10034
:1007d000020036000968a30001003a000800be00cc
:1007e0000160a0004f0678004f05be004f04be0018
:1007f00000000600f0ff2f00f1ff2700f9ff37008f
:10080000c70ade00f107b200f50fb200080032009f
:10081000e1cf4200020032000170a0002400050078
:10082000810f70000100320004080500440005003b
:10083000810f700002003a00140005008502e900f3
:100840000000400081c04800fcff3b000170a00098
:1008500024000500800178000200370081597800eb
:100860000201e9000200e000fcff3a00000006007f
:1008700000017800820178003204e000fdff3a00b8
:1008800003017800b1417800035978000304e000c7
:10089000fcff3a00000006008000780001017800ab
:1008a0003104e000fdff3a000000510000000600a6
:1008b000e4874700889fbe008a9fbe008c1f780097
:1008c0008e1f780000057800010778000206780086
:1008d0000e00e00001003a006e8757008a0578009c
:1008e0008b047800890578003b4478000800fb0001
:1008f000d20007000000e000f9ff3a00d0c2b300c8
:10090000804f54000300320000c0e900804f5400c3
:1009100002003a008904e800010037000044780032
:100920000c0178008e00780009007800290007008b
:100930009e8f540001003a000a0f78009e0f550068
:1009400003003a00e00f5000e08f58000f003a001b
:10095000b2c2b300824f540004003a00e00f5000ce
:10096000e08f580015003d0008003700d2c2b300e8
:10097000824f540011003a000200200003002800ba
:10098000820f5000838f58000a003600200220009a
:1009900080498800f0ff2f00f1ff2700d2c2b3008a
:1009a000824f540005003a0000002000010028009a
:1009b0000200370060001000e08018004f07780048
:1009c0004f0678004f05be004f04be004f00b10037
:1009d00000000600ee874700889fbe008a9fbe0089
:1009e0008c9fbe008e1f7800f0b79f000106780034
:1009f0008205780000047800080578000a04780071
:100a0000b84678000d00fb008c0007000000e000f5
:100a1000f9ff3a00d0c2b30080cf56000300320085
:100a200000c0e90080cf560002003a000a05e80045
:100a300001003700804678000b00e000050035001b
:100a4000e18f55000300320040022000808f5500e6
:100a5000060034006044b8000c00e0007000320072
:100a60007fb09700000e78006d0037000b00e000ab
:100a70000e003200f08f55001a003a0000c3b30098
:100a80009a4f100017003a001a40900081c7b30037
:100a9000814f50000300320081c5b300814f5000e8
:100aa00010003a000a85e8000e003700ab00200075
:100ab00000c3b3009a4f10000a003a001a40900099
:100ac00081c7b300814f5000040032008b0020002a
:100ad00081c5b300814f500002003a000a85e8004a
:100ae0000b0120000a007800000278000400780062
:100af00001c3b300b0cf1000fbff32000407780041
:100b00006044b800b4b79f000d003700c18c2000ce
:100b100081405000c1ef9f006159b9000800be003c
:100b2000a10607004fea97000401fb00cf91de0009
:100b3000c8b79f00d9b79f000204400083844800d3
:100b40008e0278003e00fb0085bf9f004300070037
:100b50000b01780080007800c08c2000b2030700f1
:100b60008fba97000000e000e8ff3a003fb297001c
:100b7000850f550005003a006044b8000c00e00005
:100b800027003200ffb29700240037000482520091
:100b9000108f200060c07d000000fb0000025200aa
:100ba0001700330011003a004fe997000200fb00e4
:100bb000cf80de000000540081805c00800f540074
:100bc000818f5c00090039006159b90085bf9f0021
:100bd000650607008fba97004fb19700dfb1970005
:100be000820f5000838f5800050032002002200041
:100bf000804988000084eb008084eb00050037000a
:100c0000d0c2b30080cf560002003a006004140046
:100c1000e0841c000c00e00001003200050e7800aa
:100c20000800be004f0778004f06be004f05be000b
:100c30004f04be00ef00b100000006006900e100b3
:100c4000040035006d00e100030034000002b10033
:100c5000010032000000050010000500800078004f
:100c60001104b100030035009101b10001003c0006
:100c70000050a00000000600904980000000e00045
:100c80000100320000000100009320000000060077
:100c9000881f780002047800080178006c030700c0
:100ca000080040004f047800000006000000fa0031
:100cb000881f780000047800ea8157003fb9970048
:100cc0008800780080642000070007000000e00032
:100cd000020035008040eb00017478004f0478007a
:100ce0000080fa00000006006200fa00889fbe0043
:100cf0008a1f7800000578008104780002047800db
:100d00008300780080f92f000f004000490407009d
:100d10009a979f00a9979f000000eb00b09f9f004b
:100d20001885fb008a04fb000a05ea004f55de0027
:100d300050022000808f54000d003200e10f55005a
:100d40000b003a000a017800880078002f90970085
:100d50009f91970003000100a0979f000000e00012
:100d60008e0032003f9897000000e800b09f9f007f
:100d70000a04440050022000808f54000400320016
:100d80000900e000e6ff3a003f9897008400370032
:100d90000000eb00909f9f00809f9f00f0979f00b6
:100da000e0979f00d0979f00c0979f0007003700f3
:100db000a19220000100500000004000e1912000bd
:100dc00061007800df98970001007000d09f9f00bd
:100dd0008804780009047800384578008a00fb0010
:100de000a0922000210307000000e000f0ff3a007d
:100df000a1c2b300814f55000e003a00cf88970082
:100e00000180e900c08f9f0010007800c09f9f0004
:100e10000000e00005003d000000ea00c09f9f00c8
:100e20005f9897000020a000d09f9f000904e80071
:100e30000f003700c09f9f000000eb000500370047
:100e4000f2ff2700820f5000020032006a01b90051
:100e5000028040000904780088047800b900fb0093
:100e60000103b100e98f5000f5ff3600c09f9f00dd
:100e7000e0c2b300984f1000020032000080eb0087
:100e800019003700a0c2b300d84f100007003a0085
:100e9000cf8897000180e900c08f9f001000780084
:100ea000a09f9f000804e800100037000000eb003e
:100eb000a09f9f008800780005003700f3ff2700ff
:100ec000830f5000020032006a02b90004004100a2
:100ed00001047800880078003101fb000203b100b2
:100ee000e90f5100f5ff3600a09f9f00984478005d
:100ef0008900fb0060912000dc0207000000e00098
:100f0000020032000804e800010037008044eb00d2
:100f1000c97f9f0080c6b30080cf540004003a0010
:100f200098cf14000a003a006640500006003700cf
:100f3000c0c6b30080cf540005003a0098cf14001b
:100f400003003a0065404000c07f9f000804e800ad
:100f50001801fb00e3fb2f008f81410081f92f0076
:100f60008f804000a0f92f000f0040001000070004
:100f70000000e00009003a00e1fb2f008f804000f4
:100f8000a0f92f000f004000ee0207000000e00073
:100f9000020035000804e80061ff37000080eb0024
:100fa0004f0578004f04be000080fa0000000600e4
:100fb000889fbe008a1f7800000478008244780071
:100fc0000305780070c4b30080cf54000a003c00d1
:100fd00000c0e90080cf54000f003d0050c2b300b4
:100fe00080cf5400350032007c40400080cf540058
:100ff00035003a000800370010c6b30080cf540017
:101000000500320030003500b0c9b30000c0440014
:10101000e24f50002c003e0028619000c0c4b30095
:10102000804f510006003a0011017800680051001d
:10103000800878005001be004000be000500370067
:101040001101780064005100800878001000be0093
:101050007e040700009cbe000294be00b800900011
:10106000780090000100e00002003d00d1c2b30012
:1010700008003700881090000118a3000200320019
:10108000b1c2b300030037000108a300040032001e
:1010900001c2b300017578000000e80070049800f8
:1010a00078009000000545006a0498008900fb0064
:1010b00008007800100007000b003700780090004f
:1010c000097578000600370078009000000545009b
:1010d0000904e00001003a0059c2b300094d78004c
:1010e0000000e800700498000000eb004f05780055
:1010f0004f04be00000006002f04b000889fbe0011
:101100008a9fbe008c9fbe008e1f7800000778006b
:1011100081f79f003e04be002e05be005e089000d1
:101120000000e00002003d0060002000500f980029
:101130008e00780020fb2f000f00400057020700b0
:10114000e20f50000a003a0030002000100f980013
:10115000b1c9b3000ff097008140400080872000a4
:10116000e1cf50000d003e00408720000b0037000b
:101170000000e0000f00340030002000100f980045
:10118000b1c9b3000ff197008140410000882000f1
:10119000e1cf500001003e00c0872000ee0090002b
:1011a000b0487800b068780010407800904098000f
:1011b000f30037000000e00005003a0022fb2f009a
:1011c0000f014100001978008001eb00e7003700b3
:1011d0006022b8006033b8000800be000a01be00fb
:1011e000620307000000e00001003d000bf0a200d8
:1011f000705927009f9897000088b900026a28005c
:1012000013002000bd030700640650009c9f9f0050
:1012100013003b0063061600c0ff2f0000066600a7
:101220008c01ea00939f9f004d8820000800be00bb
:101230000a01be00070037000c08a30003003200bb
:101240003d02be002d03be004f0407000c86d100f6
:10125000e88646000c00e000f7ff3c00180037006d
:101260000c00e00018003200c0ff2f0000066600ee
:101270009c9f9f004d8820006000b8000200200065
:1012800003ff2300070037000c08a300030032000f
:101290003d02be002d03be003b0407000c86d100ba
:1012a000e88646000c00e000f7ff3c000002be00ac
:1012b0000203be000800be000a01be00350307009d
:1012c0000004be000205be00de08900060c6b30048
:1012d0000ff29700804f520004003200600020009f
:1012e00062c4b300824f520002003a009f9a9700f6
:1012f0006a80420081004000f1b79f00010378003e
:10130000f30f53000200340037012000f7b79f00ad
:1013100000c3b300c0779f0056fb2f000f034300ac
:101320000e007800a0b79f00060778003d00370048
:101330000800be000a01be00e30307000006be006d
:101340007fb1970068015100f2b79f004240a900a9
:101350000c003400080407000002be000203be00b7
:101360000800be000a01be007d0407006022b8002c
:1013700046782d0077192400030407000004be00fe
:101380000205be00e80047008e0020000802be00f3
:101390000a03be00b4b79f00c5b79f00d6b79f0031
:1013a000e7b79f000c01be00010478000c00370075
:1013b000a400200005002000c0fd2f000f00400009
:1013c000840107006fa89700ffa897000fb197004e
:1013d0009fb1970005c3b300056441000001be0042
:1013e000e00f5100e08f5900030034000e07e900c0
:1013f000e10f4700eeff3a00880078003fb4970005
:10140000cfb497005fb59700efb5970002003700a3
:1014100000c3b300806078000e07e900fcff3b00ca
:10142000688740007fb397000600e00007003400a3
:101430006022b8006033b8000800be000a01be0098
:10144000cf0207000000e000b9ff3c000e03780067
:101450002fb7970051fb2f008f80400001035300ee
:101460009f9b970067804300909f9f00020037007a
:101470000603e9000000e90001017800820078001d
:1014800003c3b300b1cf1100f9ff3200909f9f005a
:10149000de09900061c6b3000ff29700814f520041
:1014a0000300320061c4b300814f520002003a00d1
:1014b0000000e8000a0037001000200051c6b30009
:1014c0008ff2970081cf520005003200054078006e
:1014d00050c4b2000080fb000000e9004f00de00b5
:1014e00083014000868f510001003400860178009e
:1014f0000300e0001d00350000c3b300868f5100db
:1015000006003d0062c279006940400041c3b3005b
:10151000814f520001003c00694050008300e90007
:101520008100410001003700840178000302e900d6
:1015300001037800a142780080cf5200faff320008
:1015400091c3b300814f500001003a00054be80001
:101550000400e00005003d000201e9008301e8000d
:101560001f9b97000603e800969f9f008ff397004c
:101570008700fb001f9a97000e0078000600070006
:101580004f0778004f06be004f05be004f04be0057
:101590002f04b10000000600f0874700889fbe00be
:1015a0008a9fbe008c9fbe008e1f780000047800ca
:1015b000814478000205be00040678000b00e000bc
:1015c00002003c001b0020004a93200060c6b300cc
:1015d00080cf54000e00320060c4b30080cf5400ae
:1015e0000b00320070c6b30080cf540003003200fd
:1015f00070c4b30080cf540081003a00e40f46006d
:101600007f00350058089000800f56007c003d0098
:101610000c06e80060c6b30080cf54001000320012
:1016200060c4b30080cf54000d0032000810900059
:101630000038a30004003a0058089000808f55003d
:1016400001003d005b0c9800580890000c00500011
:10165000500c980002003b000000eb00500c98007a
:1016600018089000e80090000c00e00026003c0004
:1016700002c3b300827078000000e800100c9800ec
:10168000d80890000100e00003003c0088109000a2
:101690000138a30005003200e8009000e2c2b30068
:1016a000827078000000e800100c98005808900044
:1016b0008c00ea00810f500001003d000006ea00a6
:1016c0008c00ea00210c9800000646005c0c980093
:1016d0008b0f5600010034000b0678003c0c98007c
:1016e000e800900018089000008040000c0178008d
:1016f0008a007800d6000700580890000c065000b9
:101700004c0c9800900037008c8f550018003d005d
:10171000008040000b0178008a007800cc000700b0
:101720001808900000804500100c98008b055600aa
:101730002b0c9800d80890000100e00003003c004a
:10174000881090000138a30006003200e8009000e5
:10175000e2c2b30082707800380890000000e80010
:10176000300c980058089000400c98007600370024
:10177000008040000c0178008a007800b400070067
:101780001808900000004600100c98008c85550049
:10179000d80890000100e00003003c008810900091
:1017a0000138a30005003200e8009000e2c2b30057
:1017b000827078000000e800100c98005808900033
:1017c000808f55000100340080057800e80090000b
:1017d00018089000008040008c0045000b01780044
:1017e0009b000700180890000b004000100c9800a8
:1017f000580890008b0550002b0c980052003700c1
:1018000018089000e80090009a7078000000e80046
:10181000100c9800d80890000100e00003003c0084
:10182000881090000138a30005003200e800900005
:10183000e2c2b300827078000000e800100c98004b
:10184000580890000000e000100034008b05e9000b
:10185000808f55000100340080057800e80090007a
:1018600018089000008040008a00e8000b01780012
:1018700077000700180890000b004000100c98003b
:10188000580890008b0550002b0c9800e800900041
:101890001808900000804000095878000007e80010
:1018a0000c00e00004003500b1c2b300014878002c
:1018b0008e04780004003700d1c2b30001487800dc
:1018c0008e0478000c06ea007d8557008006eb0048
:1018d00009003700a20020008c00780072805700b9
:1018e000310007007fb097008fb89700016d780036
:1018f000000678008d06e8000c00e000f5ff3c00d3
:101900000d00e00009003a008e04780000c3b30027
:10191000805c7800050037008d06e900fc805700e8
:1019200061c07e0002c3b300825c40000d00e00095
:10193000f9ff3c00e800900018089000008040008b
:1019400080845400390c98000810900074006000e6
:10195000f00f50000e003a009808900078009000b8
:1019600000804000a808900001004000b8089000e6
:1019700001004000c808900001004000f8089000f5
:10198000810f500002003d0000805000000c9800c4
:101990004f0778004f06be004f05be004f04be0043
:1019a0000f01b100000006008002780001037800fa
:1019b000110009000203d80080017800830a780032
:1019c0000299b900020153009202980005007800c4
:1019d00000000600881f78008a9fbe008c9fbe0012
:1019e000000478000205be000406be000401be002b
:1019f0000a00be00c1010700008cbe000c01be0041
:101a0000e90207000005550081855d002a04980061
:101a10003b049800080078004f06be004f05be004a
:101a20004f0478000000060003003700b0cf10001c
:101a3000050032000201e900800178000200e000a8
:101a4000faff3a00000005000300780000000600dd
:101a50008001780002003700b15978000201e900e6
:101a60000200e000fcff3a00000006000200370020
:101a70000304e00006003200000178000200780054
:101a8000b041780081cf5100f9ff3a0001003700e2
:101a90000001eb000200780000000600889fbe00f5
:101aa00000047800e68440001900d0004500de0004
:101ab000f27f2000820f500010003a00000ceb0073
:101ac000990478006f816400200020001b003a0018
:101ad000210190000200e00018003a00110190007e
:101ae0000200e00015003a00100020001100e000a4
:101af0001200320020002000100037000000e0003b
:101b000004003a0001007800cc0007000000e0006b
:101b100008003c00f20028001901610001fe2300ca
:101b2000810c710021c02f00010c40000080eb00ef
:101b300002003700000ceb000000eb004f04be0079
:101b4000000006000400fa00889fbe008a9fbe00c5
:101b50008c1f78000004780001067800f80d9000d2
:101b60007800900080855500080890008085550019
:101b70001808900080855500280890008085550041
:101b800038089000808555004808900080855500f1
:101b90000002220090bf9f0000032300a0bf9f000f
:101ba000081090000028a30015003a000b00e00088
:101bb000130034000b0578008a047800e20f55000a
:101bc0000100360029002000c801900009017800ba
:101bd000ee80570058009000030001005004980068
:101be0000000e0008c00320068089000090040000e
:101bf000600c9800090555004240a900eeff3c002a
:101c0000780190000200e0000c003400c801900050
:101c10008c007800580090000300010050049800e8
:101c20008080eb000000e0007c003200e8089000bb
:101c30007800900000804000600c9800880c9000b4
:101c40000900e0001100340009057800e28f54001b
:101c5000010036002a002000c80190000a01780027
:101c6000ec805700580090000300010050049800d9
:101c70000000e00068003200680890000a004000a0
:101c8000600c98008a845400edff3700180990001a
:101c90000200e0000c003400c8019000e800900051
:101ca0005800900003000100500498008080eb0071
:101cb0000000e00059003200e80890001808900089
:101cc00000804000600c9800a80c90000900e00023
:101cd0001100340009057800e28f5400010036003d
:101ce0002a002000c80190000a017800ec8057000b
:101cf0005800900003000100500498000000e0002c
:101d000045003200680890000a004000600c98000e
:101d10008a845400edff3700380990000200e0008b
:101d20000e003400e8009000180890008080400009
:101d3000c801900058009000030001005004980072
:101d40008080eb000000e00034003200e8089000e2
:101d50003808900000804000600c9800c80c90008b
:101d60000900e0001100340009057800e28f5400fa
:101d7000010036002a002000c80190000a01780006
:101d8000ec805700580090000300010050049800b8
:101d90000000e00020003200680890000a004000c7
:101da000600c98008a845400edff37000810900002
:101db0008000eb000028a300180032000b00e000b8
:101dc000160034008b04780009057800e28f540077
:101dd000010036002a002000c80190000a017800a6
:101de000ee80570058009000030001005004980056
:101df0000000e00008003200680890000a0040007f
:101e0000600c98008a8454004240a900eeff3c0018
:101e10008000eb00010037008080eb0001007800bb
:101e20004f0678004f05be004f04be000080fa0048
:101e3000000006000108780000000600e6004000ef
:101e40001101780005002800850261006f01610022
:101e500082087800020032001200200011003700d2
:101e6000a0019000120020000300e0000d003a00e5
:101e7000900190000300e0000a003a001000e0002a
:101e800008003a00360037006403400096087800e6
:101e900080017800530b78009009780004087800de
:101ea00070015100110278000400e000f6ff3200da
:101eb0001300370064024000140378004f33de0043
:101ec000838141008308730080017800d303780088
:101ed000cf3bde001403780006034300068a73003c
:101ee0001302780004024200100378004f33de0032
:101ef0008609720090017800038841000201e90020
:101f000091017800ef8f5100eaff36001000370092
:101f100080017800530378004f33dd001002d100b8
:101f2000040873006402400094037800cf3bdd0096
:101f30001303d10086897300110378004f33dd004d
:101f40009401d100030a73009108d1000201e80056
:101f500091017800ff8f5100edff3e00ef88610096
:101f60009188720002007800000006008f1fd100e7
:101f7000110207008f87e9000000e0000000060062
:101f8000809feb000c0207008f87e9000000e00053
:101f9000000006002800fa00889fbe008a9fbe004d
:101fa0008c9fbe0003866b008f0007006400e10079
:101fb000440032006408e1004a0032006100e100a0
:101fc000460032006108e10049003200ec0647009b
:101fd0006000b8003d02be003d03be00f48657001d
:101fe0006011b8003d04be003d05be007d03200029
:101ff0000b0037000000a0008d06e900130032003e
:102000000402420085824a0006034b0087834b008e
:10201000000040008180480002014900838149009e
:102020000802520089825a000a035b008b835b001e
:10203000f0ff3b000802420089824a000a034b007d
:102040008b834b008d06e900edff3a00848272001d
:1020500086827200f707b2008782720001003200a8
:10206000150020001e0490003e0b90000603540053
:10207000e63fb0000368a300070032000000a7009d
:102080000500a0008301d1000281d3008180d3002c
:102090000080d3000603e8008301d1000281d30051
:1020a0008180d3000080d3000002eb000482d200c4
:1020b0002100070003f0a1000cf0a70003f0a0002e
:1020c0005d003700640247006408e10057003200f9
:1020d0003400be003401be00f6ff37006108e100a5
:1020e000520032006011b8006000b800f1ff370004
:1020f00003ff270002002000fbff3700839f6800da
:102100000100e00002003d0060001000e0801800c7
:102110000300e00002003d0060011100e0811900b1
:10212000110107004f00e00002003b0060001000ba
:10213000e080180000000600180020005700200072
:10214000080453000d003d000600200097fc2f00fe
:102150000740e1001e0034008482720061026000ca
:102160008301d1000281d3008180d3000080d3009d
:102170000804e800f8ff3a0047002000610460000e
:1021800005047400040464000d0032006100400086
:10219000e080480060014900e081490003b8a500e3
:1021a000070032000603e8006538e10004003a0049
:1021b0008301d1000281d3008180d3000080d3004d
:1021c000f87f20000830e1000300350008037800a4
:1021d0006000b8006011b8004433dd00f300b200c5
:1021e0008301730000000600680447000294be00eb
:1021f0000094be00fc0447008694be008494be0098
:1022000009007800b501070008007800b301070055
:1022100099007800814f70000b003b000800be0061
:102220008e0107004f00b10003003700f3ff2700c5
:10223000f2ff2f006110b9004f06be004f05be002f
:102240004f04be000080fa00000006008103780001
:102250006bf907000001be006000b8000478a3001d
:1022600013003a006220e10015003e000d00390025
:102270008301d1000281d3008180d3008301d1008a
:102280000281d3008180d3008301d1000281d30079
:102290008180d3000538b000c42add00f300b2000d
:1022a0008381720007f0a70003f0a0000000060081
:1022b000f3ff2700f2ff2f006110b900fbff37008a
:1022c00003ff2700f7ff37001400fa00889fbe00c5
:1022d0008a9fbe008c9fbe000004be000205be00a7
:1022e000680047000a90be000890be007b0107000e
:1022f0000070a7000bf0a100304320009e02900068
:1023000080825200b0fe2f000028e10011003d0045
:10231000b0fc2f000028e100150034001e099000d9
:102320008e0890007e0090000501b0000201d100ef
:102330008180d3000080d3008502e800fbff3a00d3
:102340000b00e000bcff3b0060001000e0801800c4
:10235000b9ff3700f0ff2f00f1ff27000b00e0006e
:10236000b5ff3b000100280000002000b2ff37004d
:102370006000b800b0ff37004f89de0082017800ae
:102380007d013700000000002800fa00889fbe0091
:102390008a9fbe008c9fbe0003866b0092ff0700e1
:1023a0000028a30064003a000128a30067003a0057
:1023b0000008a30062003a000108a30065003a008b
:1023c0001e009000be08900081064000ed3fb10065
:1023d000f4805700ee019000111ab8008e099000a9
:1023e000311bb8009e099000311cb800511db80087
:1023f000f485570046000700fe0190003a000700f0
:102400008b85e8003e0007008e0990004000070021
:10241000ee019000340007008b85e80038000700cb
:102420008e099000400007009e0990001b18b8001c
:10243000890440000a854800fe019000340007002e
:102440008b85e80038000700ee019000300007009f
:102450008e0990001b18b800890440000a854800c6
:102460000a98a30008003a000402420085824a004c
:1024700006034b0087834b0008044c0089844c0002
:102480000a054d008d06e900848272008502730002
:102490004c3add0085027200010032001500200078
:1024a000443ade001400b2004538de00cb45dd00c2
:1024b0000b007000c540de00cb4ddd008b8070004e
:1024c0004549de00cb55dd000b017100c551de0032
:1024d0000d03780018ff070003f0a1000cf0a7001f
:1024e00003f0a00054ff37001b18b800850240001d
:1024f00006834800e0834b0060044c00070037006f
:102500001b18b8000603400087834800faff370015
:102510001b18b8008703400008844800e0844c0082
:1025200060054d00000006001b18b80008044000bc
:1025300089844800faff37000108a3003bff3a00f6
:102540005800be005801be00e3ff37000008a3009a
:1025500036ff3a0009047800f9ff37000000000058
:1025600007f0a200160037006022b8000602200023
:102570000000d0008180d2000482d2008582d20087
:102580000000a0000202520083825a0003003100c2
:102590000202420083824a000000a1000603e90013
:1025a000f3ff3a0000000600020ab900001bb90060
:1025b0000200b800810042008100430000000600d4
:1025c0002800fa00889fbe008a9fbe008c9fbe0034
:1025d00007067800878669000c003b00030478003a
:1025e0008704780008f0a10009f0a100840f5000d2
:1025f000858f5800860f5900890f5c000300330057
:102600000cf0a20001003a000cf0a100f6fe070059
:102610006400e1005f003200780147006408e100d7
:10262000610032006c014700748557003200be0023
:102630001201be003a04be001a05be001e0390003f
:10264000be0a90008503530006003d000004fd0013
:102650008104fd000205fd008305fd008703ea00fb
:10266000050378000df8a300040032006004140094
:10267000e0841c0060051d00e0851d006022b8009c
:102680007d0320000d38e1008006eb000b003900cf
:102690004433dd00f300b2008301730039003700da
:1026a000848272000d027800e10664008b85d100ff
:1026b0000a85d3008984d3000884d3008703e90006
:1026c000f7ff3b0008004000898048000a014900ec
:1026d0008b81490004003b0060001000e08018007e
:1026e00060011900e08119000358a30009003200bd
:1026f0008d82720084827200610260008301d100c9
:102700000281d3008180d3000080d3000603e8005b
:102710001b0037000348a30017003a000600e00042
:10272000170034000603e9000d00a3000000480074
:102730008180480002014900838149000348a300c9
:102740000f003a000600e000090034000603e9002b
:102750000000400081804800020149008381490057
:1027600001003a000003eb000348a300f5ff32002c
:102770006022b80002003700848272006182660025
:102780006dfe070003f0a1000cf0a70003f0a0000d
:10279000a9fe3700640147006408e10002003a0026
:1027a0000df8a300a1fe3a003200be001201be00e7
:1027b000a1fe370000000000889fbe008a9fbe0077
:1027c0008c9fbe000404be000605be00809fbe00b4
:1027d000829fbe002f000700040678000800be009c
:1027e0000a01be002b000700840678004f03be00dc
:1027f0004f02be008d4f76007fb09700130033006c
:10280000f0ff2f008b8f6b0006003b000d0666006b
:102810000c00a7000a00370007f0a60010002000f7
:102820000a003700880f5200898f5a008a0f5b0018
:102830008b8f5b00030039001000200001003e0078
:102840000000200007f0a7000000ea004f06be00cd
:102850004f05be004f04be0000000600e4824000a9
:102860001078a30007003200640240001178a30032
:102870003400be001401be00040032000330a70083
:10288000000006003500be001501be000330a000a8
:102890000000060005ff27000582610007003200e6
:1028a0000428e100010032002400050006000700b2
:1028b00001003a004400050004080500020007007a
:1028c000f9ff3a00140005006f8261008102700078
:1028d0008502710085027200000006008000780009
:1028e0005002be005003be004439de00f700b200c3
:1028f000f37f200003016100090032000218e100ab
:1029000016003a0085017200830173008381730011
:102910000008200015003a00400020001300370096
:1029200085017200830173008381730005003a0002
:1029300004a8be0006a8be00100020000b0037004f
:102940000201e9000402420085824a0006034b00ae
:1029500087834b000748a300f9ff32000740a0001f
:1029600004a8be0006a8be00200020008000980039
:102970009200980000000600881f78000304780089
:102980000300e00007003d0060001000e080180038
:1029900060011900e081190002003b0001f02d00e8
:1029a000030037000400070008f0a70003f0a000b0
:1029b0004f04780000000600889fbe00008270006f
:1029c00004027100048271002400320036432000aa
:1029d000c50020008383cf000a0039000541b10003
:1029e0008283cf00070039000541b1008183cf0009
:1029f000040039000541b1008083cf000100390097
:102a00000541b10085c353006022b80012003200b6
:102a10000a003b0084827200610260008301d100e1
:102a20000281d3008180d3000080d3000603e80038
:102a30008743e800f7ff3a00070037000000400036
:102a40008180480002014900838149000603e900b2
:102a50008743e900f9ff3a00b7fd07004f04be00c5
:042a6000000006006c
:020000040000fa
:0c2a6400252e000032660000000000007b
:020000040000fa
:102a70000000fa0017e2a90000012000f010880011
:102a800016c2a90016e2a90016a2a900b110800082
:102a900090ff2f0000806000b01088001602a9008f
:102aa000c1108000f0f32f0000806000c01088008b
:102ab0008700a9000105800080ff2f0000806000d2
:102ac0003000b300000588008f00a8008720a9000f
:102ad00001058000f0f82f008080600000032000d6
:102ae00001007000000588008f20a8001942a8008e
:102af00017e2a8001942a8000080fa0000000600b2
:102b00000200fa00000f78001e00780062f707004c
:102b1000604388006e28ef000e00370000000000c0
:102b2000c110800000202000008060000000e00054
:102b3000fbff3a00704380001e0040001040780008
:102b40000000fb00d0108800704380000000e80007
:102b5000704388007143800060438000808f500084
:102b6000eeff35000080fa00000006001200fa00b7
:102b7000005798000052240021252500008fbe0038
:102b8000f02425001102200020079800310798004a
:102b90006800470002f22400b3a423000288be00ac
:102ba0006400400001022000010878000080e80075
:102bb0008040eb00014878000000e8008e50900053
:102bc000e0c3b30080cf50002c003a0000408000ea
:102bd000e10f500029003a00104080000000e000a2
:102be0000300320020408000e10f500003003a0053
:102bf0000e007800c2ff07001a0037001040800066
:102c00000000e00017003400a20020008000eb006c
:102c10006080200026f707000000780050438800fd
:102c2000504380000000e000040035005143800064
:102c300040062000808f5000030034000e00780012
:102c4000afff0700070037005043800086010700f0
:102c5000680047006180200005f707006800470012
:102c6000a7ff0700420620008000eb0060802000e4
:102c7000f8f607000028ef000228ef00004080006f
:102c8000e10f50001f003a001140800060802000da
:102c9000008040008e509000014878001140800074
:102ca000608020000080400090407800f0c2b300b7
:102cb00080cf50000e003400114080006080200062
:102cc000008040009040780090c3b30080cf500057
:102cd0000900340011408000608020000080400026
:102ce00090407800e0c3b30080cf50000200320073
:102cf0001000200020408800104080000000e80004
:102d0000104088008e509000c0c3b30080cf5000a8
:102d100007003a00004080000000e00004003a0094
:102d200010002000004088000228ef000428ef0077
:102d30001140800040062000808f500001003a00c2
:102d40000228ef000080fa00000006000600fa00ea
:102d5000881f78007d010700240107004e0107004d
:102d600043ff0700dd0007000000eb00000f7800c4
:102d70000000eb00100798000000eb00200798000f
:102d8000d642a80067010700a0168000610060001d
:102d90000000e00007003a001e0078000000e0009c
:102da00004003a0010002000000f780010002000fe
:102db000200798001e0078000000e0006900320043
:102dc000a0168000610060000000e0006500320095
:102dd0000000eb00000f7800620037001014800044
:102de0008000eb00c8f5070082862e00f3b92300af
:102df000c7f5070018c0b3000200200003f8230045
:102e0000bdf507000000e000010034000044eb00c5
:102e10000804e00014003200401480008000eb0041
:102e2000b9f5070082862e00f3b92300b8f5070034
:102e300018c0b3000200200003f82300aef507001d
:102e40000000e000010034000044eb000804e00052
:102e500005003200dc62a800dc22a900dca2a80088
:102e6000dd02a90027003700101480008000eb006d
:102e7000a5f5070082862e00f3b92300a4f507000c
:102e800018c0b30002002000030824009cf50700ce
:102e90000000e00001003d000044eb000804e000f9
:102ea00014003200401480008000eb0096f507000b
:102eb00082862e00f3b9230095f5070018c0b300f1
:102ec00002002000030824008df507000000e00048
:102ed00001003d000044eb000804e0000500320062
:102ee000dc62a900dc22a800dca2a900dd02a800a7
:102ef00004003700dc62a900dc22a900dca2a900e2
:102f0000dd02a900a0168000610060000000e00062
:102f10000b003a001e0090000000e00008003a009c
:102f200010002000100798000000eb002007980018
:102f3000dc62a900dc22a900dca2a900dd02a90054
:102f40001e0090000000e00006003200a016800085
:102f5000610060000000e000020032000000eb00b1
:102f6000100798002e0090000000e0009bff3a0040
:042f700085ff3700a2
:020000040000fa
:102f740070080000020000000000000000080000cb
:102f84007000000000000000720800000200000051
:102f940000000000cc0800004a000000020000000d
:102fa400303132003334350036373800396162004d
:102fb4006364650066676800696a6b006c6d6e0027
:102fc4006f707100727374007576770078797a0087
:102fd40000000000211511000e0d0c000b0b0a005f
:102fe4000a09090009090900080808000808080076
:102ff4000807070007070700070707000707070078
:103004000707000030090000040000000000000071
:10301400160900001a00000002000000686a6c0033
:10302400747a4c0000000100000200000400080053
:1030340000100000000020002b2d230030000000b1
:103044007408000058000000020000006e616e0069
:10305400004e41004e0069006e660000494e460075
:1030640000000000000000000024400000000000f8
:103074000000000059400000000000000088c30068
:103084004000000000008400d79741000080e00069
:103094003779c300414317006e05b500b5b89300f6
:1030a40046f5f9003fe903004f384d00321d30006a
:1030b400f9487700825a3c00bf737f00dd4f15004a
:1030c4007500000034090000020000000200000046
:0830d4003000000000000000c4
:020000040000fa
:1030dc000000fa00a1e2a9000080eb004015880076
:1030ec00a802a900a822a900a842a900a8c2a90068
:1030fc00a8e2a900a902a900aa02a800aa22a80075
:10310c00aa42a800aac2a800aae2a800ab02a80082
:10311c00a342a800a682a9003115800000ff2f0051
:10312c000080600030158800a062a9001115800095
:10313c00f0cf2f0000806000101588001115800062
:10314c0030fc2f00008060004001b3001015880097
:10315c00a202a900a222a90011158000f0ff2100f3
:10316c00008060001015880001158000f0cf2f0042
:10317c000080600000158800a4e2a90021158000e1
:10318c00f00320000100700020158800211580003c
:10319c0000f021000100700020158800011580004e
:1031ac00000e20000100700000158800a022a8006d
:1031bc00a042a9008560a900c1048000f0ff28008e
:1031cc00808060000000250001007000c0048800b1
:1031dc008d60a800a1e2a8000080fa0000000600a3
:1031ec000000fa00c1e1a900010e800030ff2f00a1
:1031fc00008060000020a000000e8800210e8000de
:10320c000000280080806000803e200001007000db
:10321c00200e8800c901a800c801a800c881a90017
:10322c00c921a800c821a800c8a1a900c941a800ab
:10323c00c841a800c8c1a900c1e1a800007d2000b8
:10324c00b00e8800007d2000c00e8800803e20005b
:10325c00d00e88000080fa00000006000200fa0080
:10326c00000f78001e0078007400b9000000780090
:10327c008043880080438000b00e8800804380002b
:10328c00c00e88000080fa00000006000000fa0062
:10329c0005e1a9000421ef000021ef0021088000c6
:1032ac000003200001007000200888001027200077
:1032bc00100888000421a90005a1a80004c1a900d8
:1032cc008460a900a1048000f0ff280080806000c9
:1032dc000000230001007000a00488008c60a8008e
:1032ec0005e1a8000080fa00000006000200fa00c8
:1032fc000000eb00000f7800010037001e0fe80003
:10330c00f0cc20009e007800808f5000fbff340032
:10331c000080fa00000006000000fa00d1a2a8000c
:10332c00f2ff0700d1a2a900f0ff0700d1a2a8006c
:10333c00eeff0700d1a2a9000080fa0000000600f1
:10334c000000fa00cda2a900d822a900d862a900d9
:10335c00d8a2a900d902a900d222a900d242a90060
:10336c00d262a900d202a800c682a800c6a2a800f8
:08337c000080fa0000000600c9
:020000040000fa
:0200000401f009
:04000000f6bf000047
:020000040000fa
:0200000401f009
:04000400ff7f00007a
:020000040000fa
:0200000401f009
:040008007ff900007c
:00000001FF
