:020000040000fa
:080000000001040000000000f3
:020000040000fa
:0400080016030000db
:020000040000fa
:04000c0016030000d7
:020000040000fa
:0400100016030000d3
:020000040000fa
:0400140016030000cf
:020000040000fa
:0400180016030000cb
:020000040000fa
:04001c0016030000c7
:020000040000fa
:0400200016030000c3
:020000040000fa
:0400240016030000bf
:020000040000fa
:0400280016030000bb
:020000040000fa
:04002c0016030000b7
:020000040000fa
:0400300016030000b3
:020000040000fa
:04003400cc010000fb
:020000040000fa
:0400380016030000ab
:020000040000fa
:04003c0016030000a7
:020000040000fa
:0400400016030000a3
:020000040000fa
:04004400160300009f
:020000040000fa
:04004800160300009b
:020000040000fa
:04004c002c02000082
:020000040000fa
:040050005a02000050
:020000040000fa
:04005400bc020000ea
:020000040000fa
:04005800160300008b
:020000040000fa
:04005c001603000087
:020000040000fa
:040060001603000083
:020000040000fa
:04006400160300007f
:020000040000fa
:04006800160300007b
:020000040000fa
:04006c001603000077
:020000040000fa
:040070001603000073
:020000040000fa
:04007400160300006f
:020000040000fa
:04007800160300006b
:020000040000fa
:04007c001603000067
:020000040000fa
:040080001603000063
:020000040000fa
:04008400160300005f
:020000040000fa
:040088006202000010
:020000040000fa
:04008c0090020000de
:020000040000fa
:040090001603000053
:020000040000fa
:04009400160300004f
:020000040000fa
:04009800160300004b
:020000040000fa
:04009c001603000047
:020000040000fa
:0400a0001603000043
:020000040000fa
:0400a400160300003f
:020000040000fa
:0400a800160300003b
:020000040000fa
:0400ac001603000037
:020000040000fa
:0400b0001603000033
:020000040000fa
:0400b400160300002f
:020000040000fa
:0400b800160300002b
:020000040000fa
:0400bc001603000027
:020000040000fa
:0400c0001603000023
:020000040000fa
:0400c400160300001f
:020000040000fa
:0400c800980200009a
:020000040000fa
:0400cc001603000017
:020000040000fa
:0400d0001603000013
:020000040000fa
:0400d400160300000f
:020000040000fa
:0400d800160300000b
:020000040000fa
:0401080016030000da
:020000040000fa
:04010c0016030000d6
:020000040000fa
:0401100016030000d2
:020000040000fa
:0401140016030000ce
:020000040000fa
:0401180016030000ca
:020000040000fa
:04011c0016030000c6
:020000040000fa
:0401200016030000c2
:020000040000fa
:0401240016030000be
:020000040000fa
:0401280016030000ba
:020000040000fa
:04012c0016030000b6
:020000040000fa
:0401300016030000b2
:020000040000fa
:0401340016030000ae
:020000040000fa
:0401380016030000aa
:020000040000fa
:04013c0016030000a6
:020000040000fa
:0401400016030000a2
:020000040000fa
:04014400160300009e
:020000040000fa
:04014800160300009a
:020000040000fa
:04014c001603000096
:020000040000fa
:040150001603000092
:020000040000fa
:04015400160300008e
:020000040000fa
:04015800160300008a
:020000040000fa
:04015c001603000086
:020000040000fa
:040160001603000082
:020000040000fa
:04016400160300007e
:020000040000fa
:04016800160300007a
:020000040000fa
:04016c001603000076
:020000040000fa
:040170001603000072
:020000040000fa
:04017400160300006e
:020000040000fa
:04017800160300006a
:020000040000fa
:04017c001603000066
:020000040000fa
:040180001603000062
:020000040000fa
:04018400160300005e
:020000040000fa
:04018800160300005a
:020000040000fa
:04018c001603000056
:020000040000fa
:040190001603000052
:020000040000fa
:04019400160300004e
:020000040000fa
:04019800160300004a
:020000040000fa
:04019c001603000046
:020000040000fa
:0401a0001603000042
:020000040000fa
:0401a400160300003e
:020000040000fa
:0401a800160300003a
:020000040000fa
:0401ac001603000036
:020000040000fa
:0401b0001603000032
:020000040000fa
:0401b400160300002e
:020000040000fa
:0401b800160300002a
:020000040000fa
:0401bc001603000026
:020000040000fa
:0401c0001603000022
:020000040000fa
:0401c400160300001e
:020000040000fa
:0401c800160300001a
:020000040000fa
:0401cc001603000016
:020000040000fa
:0401d0001603000012
:020000040000fa
:0401d400160300000e
:020000040000fa
:0401d800160300000a
:020000040000fa
:10020000cf9620000eff20000e01880000000000a5
:10021000000020000000e000020032000001200089
:100220002002880014000700020107000000e0001f
:1002300003003a0080402200010020000200370045
:100240000000200001002000810f7000010032003a
:1002500014000700000020000000e000020032004f
:100260000000020000000000642002000000000006
:100270000040da000000fe004440a9008001200098
:100280000000e0000300320000002000a001880010
:100290004440a800000006008a1f78008b1f7800e9
:1002a0000000060091018800800478000000eb0047
:1002b0001a003700e284440032a0b4009905ba0065
:1002c000e284440032a0b4009906ba00e2844400fb
:1002d00032a0b4000006eb00476fde00fd07b2005d
:1002e000636ce10003003a00ebff07000000eb0045
:1002f0000a003700606ce10004003a00005deb008a
:100300008b05e900fdff3e00040037006168e10055
:10031000010032000086eb000b00070019c7ba008d
:100320001905ba000e04e00003003a000a00e000dc
:10033000e0ff3a0000000600fe07b2009e018800c0
:100340008a047800f5ff3700395dba008b05e900b3
:100350000c003200295dba008b05e900080032006c
:100360000c00e00003003a00e284440032a0b40034
:10037000f5ff370019ddba008b05e900faff3a00f6
:100380008904e800e184440032a0b40000000600c3
:1003900000000000000000003600f800809fbe0052
:1003a000829fbe00849fbe00869fbe003400f8007e
:1003b00000002000a00188000000fa008460a9006d
:1003c000a042a8005044800080007800000028006f
:1003d0000088b9008000780030098000008040006b
:1003e00000448800014480001044800000805000d8
:1003f000cf80de0013010700d2cc2c00c3dc230029
:1004000068010700e0438800f14388000044800051
:100410001044880020448000e10f500003003a009f
:100420000040800011408000830e070020448000bf
:100430000000e800204488000080fa003400f90041
:100440004f03be004f02be004f01be004f00be0072
:100450003600f900004006003600f800809fbe001c
:10046000829fbe00849fbe00869fbe000200fa00ed
:100470008520a9000200370090108000004f78000e
:1004800070108000610060000000e000faff3a0098
:100490001e407800961007000080fa004f03be004f
:1004a0004f02be004f01be004f00be003600f900f3
:1004b000004006000000fa008540a9000080fa0014
:1004c000004006003600f800809fbe00829fbe00fc
:1004d000849fbe00869fbe000200fa008700a9002c
:1004e00002003700e0108000004f7800c01080004c
:1004f000610060000000e000faff3a001e40780052
:100500007b1007000080fa004f03be004f02be00c0
:100510004f01be004f00be003600f900004006004b
:100520000000fa008720a9000080fa0000400600c1
:10053000801f78000000fa008900a90030098000bf
:100540000000e00004003500504480000000e80096
:100550005044880003003700504480000000e90048
:1005600050448800f0ff2700300988000080fa001e
:100570004f007800004006003600f800809fbe0063
:10058000829fbe00849fbe00869fbe001000fa00be
:100590000022250081a52300008fbe00000220005c
:1005a000200798008560a900a042a90010148000cf
:1005b0008000eb00a600070082862e00f3b923001e
:1005c000f800070066014700809fbe0080dd29001b
:1005d000801f78000200780084050700e687570036
:1005e00066004700800078000e0078008201070056
:1005f0006144800040062000808f500001003a00d6
:100600008c28ef00604480000000e800604488000f
:100610000080fa004f03be004f02be004f01be0033
:100620004f00be003600f900004006000040da002e
:100630000000fe000000050003f0a200889fbe003d
:100640008a9fbe008c1f7800be000700c5003300e3
:100650006450e1004f0032006420e100520032009b
:1006600003826c0007003b000905d0000306d000a0
:10067000820f54000c065d000200390002003200b7
:1006800089017800030678008582550004003d004a
:100690000003fd008103fd008502ea008b85420016
:1006a000840f720002003b0060001000e080180020
:1006b0006011b8000005eb007a28e1000a0039005b
:1006c00006007800c75ddd00f707b200878075007f
:1006d0002d003700828171000a01780061056000f9
:1006e0008180d1000080d3008502e900f9ff3b0042
:1006f000060440008784480002003b0060041400a8
:10070000e0841c000988a300070032008a81710080
:1007100082817100610164008904d1000884d300e2
:100720008b05e800170037000978a30013003a0092
:100730000b00e000130034008b05e90008044400be
:1007400089844c000a4474000978a3000d003a0023
:100750000b00e000070034008b05e90008044400aa
:1007600089844c0001003a000b0020000978a300a6
:10077000f7ff32000001eb000200370082817100b8
:100780000a017800340007000cf0a70001f0a00077
:100790007d0037006420e10002003a00838f6c0086
:1007a0007d0033000801be000200be007600370065
:1007b00014002000af003700f4ff2f00ad00370019
:1007c0000001be004a0007000470a70003f0a1006a
:1007d0006509b100160032000d0035006828e100ff
:1007e00006003500f0ff2f00f1ff27000300e000b6
:1007f00013003b000100280000000500000040003d
:10080000818048008502e900fcff3a0008003700bb
:10081000f88f420002003c008000eb000000050061
:100820008100d1000080d3008502e800fcff3a007f
:100830000300e00002003b0060001000e0801800b0
:10084000000006004f89de0082017800a400370016
:100850006011b800b20037008100200061805500af
:100860000b003d000b00200061fe2f000100e100a5
:100870001d00340082817100610164008904d1008f
:100880000884d3000000e800faff3a00710020005d
:100890006100640003007000020060000900320083
:1008a00061044400e0844c000988a5000500320082
:1008b0008b05e8006808e10002003a008904d100d5
:1008c0000884d300f20f20000258e10005003d002b
:1008d000c75ddd00f907b200898075000800780067
:1008e000000006000bf827008b00780000000500d0
:1008f000c70ade00f107b200f50fb20008003200af
:10090000e1cf4200020032000170a0002400050087
:10091000810f70000100320004080500440005004a
:10092000810f700002003a00140005008502e90002
:100930000000400081c04800fcff3b000170a000a7
:10094000240005000004be00e9ff07000003be000c
:100950000405be000200be00e5ff0700844f7500dd
:10096000000006000200be006450e10005003600f1
:100970006420e100020036000968a30001003a008b
:100980000800be000160a0004f0678004f05be00c1
:100990004f04be0000000600f0ff2f00f1ff27000b
:1009a000f9ff3700889fbe008a9fbe008c1f780029
:1009b000e4ff0700ebff330003866c006450e100a6
:1009c000240032006420e100270032006150e10081
:1009d000220032006120e100210032008b854200bc
:1009e000eb07b1000134b800003ab8000804420037
:1009f00089844a00013ab8000030b800888040007d
:100a000009014a00040033000000400081804800d2
:100a1000020149008b05e900c909dd00830170006e
:100a20000100320013002000c814de004814dd006d
:100a30004709de001200b200c808de00088470001a
:100a400085ff070001f0a1000cf0a70001f0a00055
:100a5000cdff37006120e100cfff32000801be006a
:100a60000200be00f7ff37006150e100fcff3a00d2
:100a7000c9ff3700889fbe008a9fbe00841f780090
:100a8000b0ff07004f00780011003300f0ff2f0087
:100a9000838f6c0006003b00040565000a00a70078
:100aa0000800370009f0a6001000200008003700f9
:100ab000820f5400838f5c00030039001000200077
:100ac00001003e000000200009f0a7000000ea003d
:100ad0004f05be004f04be000000e000000006000d
:100ae000881f7800030478000300e00007003d0041
:100af00060001000e080180060011900e08119001a
:100b000002003b0001f02d00030037000400070045
:100b100008f0a70001f0a0004f04780000000600d4
:100b2000889fbe008a9fbe00008270000402710090
:100b300004827100260032000004be000200be00e4
:100b40006011b8006b092000950220000182cf00df
:100b50000a0039000541b1000082cf0007003900ca
:100b60000541b1000982cf00040039000541b10000
:100b70000882cf00010039000541b1000542520052
:100b8000120032000a003b008281710061016400a2
:100b90008100d1000080d3008984d3000884d30071
:100ba0008b05e8000442e800f7ff3a000700370031
:100bb0000804440089844c000000480081804800fb
:100bc0008b05e9000442e900f9ff3a0022ff070023
:100bd0004f05be004f04be000000060080017800f3
:100be00002003700815978000201e9000200e000ac
:100bf000fcff3a0000000600000178008201780046
:100c00003204e000fdff3a0003017800b1417800b2
:100c1000035978000304e000fcff3a0000000600de
:100c200080007800010178003104e000fdff3a0007
:100c300000005100000006000e00fa00889fbe0070
:100c40008a9fbe008c1f7800a0bf9f00010478001f
:100c50000205be0080047800880078006c80570090
:100c60003201070068066000000278000430a1002d
:100c7000e10f520013003a00f48157000801780098
:100c8000afb8970009007800400007000000e000be
:100c900002003a006000b800030037000fb8970068
:100ca0009fb89700e7fe0700c0b79f00d1b79f002d
:100cb0006fb19700ffb197000a0141008b81490095
:100cc00016003700e20f520018003a00140020000e
:100cd000f481570008017800afb897000900780048
:100ce000a30107000000e00002003a006000b80025
:100cf000030037000fb897009fb89700d1fe070098
:100d0000c0b79f00d1b79f006fb19700ffb19700a8
:100d100078805700250307000a01be004fb09700f6
:100d2000dfb09700b40207000c003700000020007d
:100d300001f82700e30f5200050032006000b80000
:100d4000e40f520005003a00f0ff2f00f1ff2700ea
:100d5000c0b79f00d1b79f0002003700c0b79f0007
:100d6000d1b79f004fb09700dfb097000c00e000b4
:100d70000100320001f0a2004f0678004f05be00ce
:100d80004f04be000080fa0000000600ea8747001a
:100d9000889fbe008a9fbe008c9fbe008e1f780079
:100da000d0b79f00e2b79f00030478006922b90022
:100db000840678000006eb00010037001c002000cc
:100dc000810578008b00780000c3b300b14f10009c
:100dd000faff3200000ceb003814780008057800a8
:100de0008004eb00290037008d8f540017003d0070
:100df00092002000110009008204d8000100e000e8
:100e000003003a0064054500001deb000015eb00ef
:100e10001b02fb00cfa2de000403b1000580b1007d
:100e2000a2002000030020001a00be00f4b79f00bb
:100e300085bf9f00260a07007fb297008fba9700f0
:100e4000001d420001954a000d00370010002000ef
:100e500001002000180c4000589448008d8f540069
:100e600008003a0040c3b3009b4f10000500340057
:100e700012002000030020001a0d41005a9549007d
:100e80008904e8008b05e8001c0020001b40780066
:100e90008000fb000103b100e98f5000d2ff360053
:100ea0008d8f5400010034008d047800e1c2b3003e
:100eb000814f500001003a008b05e8000900e00076
:100ec0002b003a000b007800050037000081eb0092
:100ed0008081eb00180c4100589449001c00200050
:100ee0008005780001c3b300b0cf1000f7ff3200d7
:100ef0001f0037008d8f54001c003d009200200021
:100f0000110009008204d8000100e00003003a004b
:100f100064054500001deb000015eb007bfa97000f
:100f20000402fb00cfa2de000403b1000580b10083
:100f3000a2002000030020001a00be00f4b79f00aa
:100f400085bf9f00e20907007fb297008fba970024
:100f5000001d420001954a008904e8000080eb0072
:100f60008080eb00180c4000589448001c002000c2
:100f70000b0778008e0578003b00fb000003b100f2
:100f8000e90f5000dbff36008c0578009d00200043
:100f9000110009008d04d8000100e00016003200a5
:100fa000818656001a01be00e00f5100e08f590003
:100fb000070032000d00e9004200dd0041912000f1
:100fc000008040001000be00c1090700008dbe0077
:100fd000898446006168b900181c10001894180034
:100fe00005003700e984540092002000030020002f
:100ff000180c410058944900e88f54000400340054
:101000002a00be00e00f5000e08f5800f5ff3200cc
:101010000c00e000340032001e40780051c6b300de
:10102000814f50000300320051c4b300814f500083
:101030002c003a005e457800b0c2b300804f5500e6
:1010400003003200d1c2b300814f550002003a00c4
:101050000e07e80001003700004578000e06780012
:101060006000b8008005eb000f003700f20f2e0083
:10107000535f2000820f5000838f580009003c000e
:10108000a200200003002000910907000d01fb00d1
:10109000cf91de000203b1000380b10002004000e6
:1010a000838048001b0020000c0778000e067800a3
:1010b000bc4678000d01fb000203b100e90f5100ae
:1010c000eaff3600d2c2b300824f550002003a0058
:1010d00060001000e0801800180c40005894480090
:1010e000010037008c057800efb197000300e000a5
:1010f000050032000b00e00001003a005fb79700e6
:101100006fb097000e0878009200200011000900cf
:101110008204d8004f0778004f06be004f05be007e
:101120004f04be00af00b10000000600889fbe0063
:101130008a9fbe008c9fbe000004780001067800e4
:1011400098047800890578000b0578008a057800f6
:10115000bb4678000d00fb008b0107000000e0009b
:10116000f9ff3a00d0c2b30080cf560003003a0026
:101170000b05780081002000050037008000eb009f
:10118000b0c2b30080cf560001003a000b057800d2
:101190001a407800e2c6b300824f500003003200cc
:1011a000e2c4b300824f500027003a008a00780062
:1011b0005141780010c6b300804f51000400320046
:1011c0000000eb0013c4b300834f51005c003a00f1
:1011d00051417800e0c6b300804f51000400320056
:1011e0000000eb00e3c4b300834f510054003a0009
:1011f0008104780080c2b300d94f10000b003a0080
:10120000640545008a057800ba4678000d00fb00a9
:101210004f0107000000e000faff3a00f0c5b300fc
:1012200080cf5600f7ff32000100370089057800b3
:101230004000200091c2b3009bcf100040003a0054
:101240008b04e8003e00370092c6b300824f500086
:101250000300320092c4b300824f50003c003a00b9
:101260005a417800e0c6b300804f510004003200bc
:101270000000eb00e3c4b300834f510030003a009c
:101280005a41780060c6b300804f5100040032001c
:101290000000eb0063c4b300834f510028003a0004
:1012a0008a047800010078003000b300d94078004b
:1012b00092c6b30082cf50000300320092c4b30044
:1012c00082cf50001e003a0089007800514178001a
:1012d000e3c6b300834f510003003200e3c4b30000
:1012e000834f510016003a005141780093c6b30075
:1012f000834f51000300320093c4b300834f510069
:101300000f003a005141780043c7b300834f5100aa
:101310000300320043c5b300834f510008003a0078
:101320005141780093c7b300834f5100030032004e
:1013300093c5b300834f510001003a008104e800d7
:101340000c00e00005003200090e780003003700b1
:10135000010078000000a0008a047800090c7800e1
:101360004f06be004f05be004f04be000000060041
:10137000e8874700889fbe008a9fbe008c9fbe0002
:101380008e1f7800e0b79f00820478000304780085
:101390006722b9000006eb00010037001c002000a6
:1013a0008101780000c3b300b14f1000fbff320091
:1013b000000ceb0038147800880578000005eb007d
:1013c0002a003700840f550016003d0072002000ef
:1013d000110009000205d8000100e00003003a00f6
:1013e000e4854500801deb008015eb001b06be0068
:1013f000446bdd00cc63de00870373004463dd00d3
:10140000c18f200001805200618e20006140780071
:101410000000fb00cf80de00801d430081954b0063
:10142000100037001000200001002000180c4000c0
:1014300058944800840f55000b003a00c18f2000db
:1014400001805200618e200061407800e74f50001b
:101450000500340010002000010020009b0d40001a
:10146000db9548000a05e8001c0020008306780090
:101470008d017800334778008e00fb006201200068
:10148000c08f2000f3b79f0084bf9f004605070070
:1014900080027800ffb197000fba97000500e000c6
:1014a000c8ff3a00840f550001003400040578009d
:1014b000e0c2b300804f570001003a008d06e800fb
:1014c0000a00e00029003a000d007800050037000e
:1014d0000081eb008081eb00180c4100589449001a
:1014e0001c0020008006780001c3b300b0cf1000bc
:1014f000f7ff32001d003700840f55001a003d0031
:1015000072002000110009000205d8000100e0006f
:1015100003003a00e4854500801deb008015eb00d8
:101520001b03be004439dd00cc31de0083017100b5
:101530004431dd00c18f200001805200618e200007
:10154000614078000000fb00cf80de00801d41007c
:10155000819549000a05e8000081eb008081eb00dd
:10156000180c4100589449001c0020000d07780019
:101570008e067800bd00fb0062012000c08f2000b5
:1015800084bf9f0008050700800278000fba97000b
:101590000500e000d8ff3a000c017800730020003d
:1015a000110009000305d8000100e000130032001b
:1015b00001805100c200dd001b02be008100e90075
:1015c000030033000402420085824a00fbff37001b
:1015d000848dbe000a054000cf80de00181c10007c
:1015e00018941800050037006705550070002000aa
:1015f00001002000180c400058944800e60f5500e8
:10160000040034002b00be00e00f5000e08f5800b3
:10161000f5ff32001800be00420add00ce02de00f7
:10162000850272004202dd00048cbe000c00e00066
:10163000380032001e40780001c7b300814f5000cf
:101640000300320001c5b300814f500030003a0062
:101650000e067800dc457800b0c2b30080cf55009c
:1016600003003200d1c2b30081cf550002003a001e
:101670000c06e80001003700804578006000b800e3
:101680000001eb0013003700f20f2e00535f200023
:10169000820f5000838f58000d003c00a2002000f4
:1016a0000300200084bf9f00f5b79f0008080700d3
:1016b0000d01fb00cf91de000203b1000380b100f9
:1016c0000200400083804800ffb297000fba9700e5
:1016d000120020000c0778000e067800bc46780047
:1016e0008d01fb000303b100e98f5100e6ff3600d6
:1016f000d3c2b30083cf550002003a00600010004f
:10170000e0801800041c40000594480001003700e8
:101710000c0178000900e000040032000200e00043
:1017200001003a006fb797008e0c7800720020001d
:10173000110009000205d8004f0778004f06be00cf
:101740004f05be004f04be008f00b1000000060030
:101750000003b1000b0035009000b1000800340018
:101760008000b100070035009001b1000400340092
:101770007000b100030035009001b10001003c0091
:1017800010000500000005006900e10004003500bc
:101790006d00e100030034000002b10001003200de
:1017a00000000500100005000600fa00881f780000
:1017b000000478008800780068805700d2bf9f003e
:1017c000e3bf9f00d40007005fb99700efb997000f
:1017d0001800be0073fc0700008cbe004fb99700d4
:1017e000cf91de0008007800700007004f047800f9
:1017f0000080fa00000006000400fa00889fbe0086
:101800008a1f7800b0bf9f00c1bf9f000204be00c6
:10181000e00f5100e08f59005e0032006011b80007
:10182000e3fb07000000e0005a003200e00f540024
:10183000e08f5c002a003d0060041400e0841c007e
:101840000005eb000000200001f823000808a300b9
:1018500005003200c251dd00e29420000281410007
:101860001201be004ffc07008904d1000884d30098
:10187000e00f5400e08f5c00030032000a05e8002e
:10188000e50f5500f1ff3a000001be000000200006
:1018900001f82300220607000001be006a805700fd
:1018a000c1ff07000000e00032003d00e00f5400df
:1018b000e08f5c0037003200e2112b00f3a420001f
:1018c0006a805700b8ff07000000e00029003d00d3
:1018d00061045400e0845c00f7ff3a0029003700ff
:1018e0000005eb000000200001f823000808a30019
:1018f00005003200c251dd00e29420000281410067
:101900001201be0027fc07008984d1000884d3009f
:10191000e00f5400e08f5c00030032000a05e8008d
:10192000e50f5500f1ff3a000001be006a80570044
:101930009dff07000000e0000e003d00e00f540096
:10194000e08f5c0013003200e25a2c00d3492700dc
:101950006a80570094ff07000000e00005003d008a
:1019600061045400e0845c004240a900f6ff3c00a2
:10197000040037000000e00002003a0000012000ef
:1019800003003700e10f500002003a008000200001
:10199000850007003fb89700cfb897004f05780043
:1019a0004f04be000080fa00000006000400fa00a8
:1019b000889fbe00000478008804780059007800f1
:1019c0004702de0084007800f10fb200e14f4200d0
:1019d00009003a0080007800f107b20020002000e2
:1019e0004a003a00100020001800e00047003200d2
:1019f00020002000450037000100e0000a003a0006
:101a000008007800c2bf9f00d3bf9f0003040700f7
:101a1000800078000000eb004fb99700dfb9970015
:101a20000100e00039003c004f88de0002814000e8
:101a300083014800e00f2000800f5100e08f590023
:101a4000090034000000200001f827001900e00020
:101a500002003d000000200001f82f00008cbe00b5
:101a60001000200029003700e00f5100e08f5900de
:101a7000050034004711dd00f00728001900600060
:101a8000800c7100200037009900780000002800c9
:101a900000806000f10fb2000170a000810c78009e
:101aa00061015100e0815900f70f4100e08f4900ca
:101ab00004003d00800c7800000ceb000000eb00ff
:101ac00012003700ef0f410003003d00010c7800c9
:101ad000800ceb00700141000201ea0009003200b5
:101ae000f0001100990178008119dd00980078005c
:101af0008208de00018c7100990078000209de0086
:101b0000820c7800990c70000080eb004f04be003e
:101b10000080fa0000000600889fbe000004be009e
:101b200000f82700590060004700de00f20f200097
:101b3000820f50000a003a00000ceb00f207200070
:101b4000190161002000200015003a00100020005b
:101b50001100e000120032002000200010003700c9
:101b60000000e00004003a0001007800ab03070029
:101b70000000e00008003c00f207280019016100a5
:101b800001f02300810c710021f82f00010c4000ae
:101b90000080eb0002003700000ceb000000eb00bf
:101ba0004f04be0000000600e500600003003200a4
:101bb00010022000304b8800000006007800600012
:101bc0000200320020022000304b88000000060096
:101bd000881f780002047800080178007c03070061
:101be000080040004f047800000006000000fa00e2
:101bf000881f780000047800ea8157003fb99700f9
:101c00008800780080de2000070007000000e00068
:101c1000020035008040eb00017478004f0478002a
:101c20000080fa00000006006200fa00889fbe00f3
:101c30008a1f78000005780081047800020478008b
:101c40008300780080f92f000f0040008204070015
:101c50009a979f00a9979f000000eb00b09f9f00fc
:101c60001885fb008a04fb000a05ea004f55de00d8
:101c700050022000808f54000d003200e10f55000b
:101c80000b003a000a017800880078002f90970036
:101c90009f91970003000100a0979f000000e000c3
:101ca0008e0032003f9897000000e800b09f9f0030
:101cb0000a04440050022000808f540004003200c7
:101cc0000900e000e6ff3a003f98970084003700e3
:101cd0000000eb00909f9f00809f9f00f0979f0067
:101ce000e0979f00d0979f00c0979f0007003700a4
:101cf000819420000100500000004000c1932000aa
:101d000061007800df98970001007000d09f9f006d
:101d10008804780009047800384578008a00fb00c0
:101d200080942000310307000000e000f0ff3a003b
:101d3000a1c2b300814f55000e003a00cf88970032
:101d40000180e900c08f9f0010007800c09f9f00b5
:101d50000000e00005003d000000ea00c09f9f0079
:101d60005f9897000020a000d09f9f000904e80022
:101d70000f003700c09f9f000000eb0005003700f8
:101d8000f2ff2700820f5000020032006a01b90002
:101d9000028040000904780088047800b900fb0044
:101da0000103b100e98f5000f5ff3600c09f9f008e
:101db000e0c2b300984f1000020032000080eb0038
:101dc00019003700a0c2b300d84f100007003a0036
:101dd000cf8897000180e900c08f9f001000780035
:101de000a09f9f000804e800100037000000eb00ef
:101df000a09f9f008800780005003700f3ff2700b0
:101e0000830f5000020032006a02b9000400410052
:101e100001047800880078003101fb000203b10062
:101e2000e90f5100f5ff3600a09f9f00984478000d
:101e30008900fb0040932000ec0207000000e00056
:101e4000020032000804e800010037008044eb0083
:101e5000c97f9f0080c6b30080cf540004003a00c1
:101e600098cf14000a003a00664050000600370080
:101e7000c0c6b30080cf540005003a0098cf1400cc
:101e800003003a0065404000c07f9f000804e8005e
:101e90001801fb00e3fb2f008f81410081f92f0027
:101ea0008f804000a0f92f000f00400010000700b5
:101eb0000000e00009003a00e1fb2f008f804000a5
:101ec000a0f92f000f004000270307000000e000ea
:101ed000020035000804e80061ff37000080eb00d5
:101ee0004f0578004f04be000080fa000000060095
:101ef000889fbe008a1f7800000478008244780022
:101f00000305780070c4b30080cf54000a003c0081
:101f100000c0e90080cf54000f003d0050c2b30064
:101f200080cf5400350032007c40400080cf540008
:101f300035003a000800370010c6b30080cf5400c7
:101f40000500320030003500b0c9b30000c04400c5
:101f5000e24f50002c003e0028619000c0c4b30046
:101f6000804f510006003a001101780068005100ce
:101f7000800878005001be004000be000500370018
:101f80001101780064005100800878001000be0044
:101f9000f9040700009cbe000294be00b800900047
:101fa000780090000100e00002003d00d1c2b300c3
:101fb00008003700881090000118a30002003200ca
:101fc000b1c2b300030037000108a30004003200cf
:101fd00001c2b300017578000000e80070049800a9
:101fe00078009000000545006a0498008900fb0015
:101ff00008007800100007000b0037007800900000
:10200000097578000600370078009000000545004b
:102010000904e00001003a0059c2b300094d7800fc
:102020000000e800700498000000eb004f05780005
:102030004f04be00000006002f04b000889fbe00c1
:102040008a9fbe008c9fbe008e1f7800000778001c
:1020500081f79f003e04be002e05be005e08900082
:102060000000e00002003d0060002000500f9800da
:102070008e00780020fb2f000f0040009002070028
:10208000e20f50000a003a0030002000100f9800c4
:10209000b1c9b3000ff097008140400020892000b3
:1020a000e1cf50000d003e00e08820000b0037001b
:1020b0000000e0000f00340030002000100f9800f6
:1020c000b1c9b3000ff1970081404100a089200001
:1020d000e1cf500001003e0060892000ee0090003a
:1020e000b0487800b06878001040780090409800c0
:1020f000f30037000000e00005003a0022fb2f004b
:102100000f014100001978008001eb00e700370063
:102110006022b8006033b8000800be000a01be00ab
:102120009b0307000000e00001003d000bf0a2004f
:10213000705927009f9897000088b900026a28000c
:102140001300200038040700640650009c9f9f0085
:1021500013003b0063061600c0ff2f000006660058
:102160008c01ea00939f9f00ed8920000800be00cb
:102170000a01be00070037000c08a300030032006c
:102180003d02be002d03be00c90407000c86d1002d
:10219000e88646000c00e000f7ff3c00180037001e
:1021a0000c00e00018003200c0ff2f00000666009f
:1021b0009c9f9f00ed8920006000b8000200200075
:1021c00003ff2300070037000c08a30003003200c0
:1021d0003d02be002d03be00b50407000c86d100f1
:1021e000e88646000c00e000f7ff3c000002be005d
:1021f0000203be000800be000a01be006e03070015
:102200000004be000205be00de08900060c6b300f8
:102210000ff29700804f520004003200600020004f
:1022200062c4b300824f520002003a009f9a9700a6
:102230006a80420081004000f1b79f0001037800ee
:10224000f30f53000200340037012000f7b79f005e
:1022500000c3b300c0779f0056fb2f000f0343005d
:102260000e007800a0b79f00060778003d003700f9
:102270000800be000a01be005e0407000006be00a2
:102280007fb1970068015100f2b79f004240a9005a
:102290000c003400830407000002be000203be00ed
:1022a0000800be000a01be00f70407006022b80063
:1022b00046782d00771924007d0407000004be0035
:1022c0000205be00e80047008e0020000802be00a4
:1022d0000a03be00b4b79f00c5b79f00d6b79f00e2
:1022e000e7b79f000c01be00010478000c00370026
:1022f000a400200005002000c0fd2f000f004000ba
:10230000940107006fa89700ffa897000fb19700ee
:102310009fb1970005c3b300056441000001be00f2
:10232000e00f5100e08f5900030034000e07e90070
:10233000e10f4700eeff3a00880078003fb49700b5
:10234000cfb497005fb59700efb597000200370054
:1023500000c3b300806078000e07e900fcff3b007b
:10236000688740007fb397000600e0000700340054
:102370006022b8006033b8000800be000a01be0049
:10238000080307000000e000b9ff3c000e037800de
:102390002fb7970051fb2f008f804000010353009f
:1023a0009f9b970067804300909f9f00020037002b
:1023b0000603e9000000e9000101780082007800ce
:1023c00003c3b300b1cf1100f9ff3200909f9f000b
:1023d000de09900061c6b3000ff29700814f5200f2
:1023e0000300320061c4b300814f520002003a0082
:1023f0000000e8000a0037001000200051c6b300ba
:102400008ff2970081cf520005003200054078001e
:1024100050c4b2000080fb000000e9004f00de0065
:1024200083014000868f510001003400860178004e
:102430000300e0001d00350000c3b300868f51008b
:1024400006003d0062c279006940400041c3b3000c
:10245000814f520001003c00694050008300e900b8
:102460008100410001003700840178000302e90087
:1024700001037800a142780080cf5200faff3200b9
:1024800091c3b300814f500001003a00054be800b2
:102490000400e00005003d000201e9008301e800be
:1024a0001f9b97000603e800969f9f008ff39700fd
:1024b0008700fb001f9a97000e00780006000700b7
:1024c0004f0778004f06be004f05be004f04be0008
:1024d0002f04b10000000600f0874700889fbe006f
:1024e0008a9fbe008c9fbe008e1f7800000478007b
:1024f000814478000205be00040678000b00e0006d
:1025000002003c001b002000aa96200060c6b30019
:1025100080cf54000e00320060c4b30080cf54005e
:102520000b00320070c6b30080cf540003003200ad
:1025300070c4b30080cf540081003a00e40f46001d
:102540007f00350058089000800f56007c003d0049
:102550000c06e80060c6b30080cf540010003200c3
:1025600060c4b30080cf54000d003200081090000a
:102570000038a30004003a0058089000808f5500ee
:1025800001003d005b0c9800580890000c005000c2
:10259000500c980002003b000000eb00500c98002b
:1025a00018089000e80090000c00e00026003c00b5
:1025b00002c3b300827078000000e800100c98009d
:1025c000d80890000100e00003003c008810900053
:1025d0000138a30005003200e8009000e2c2b30019
:1025e000827078000000e800100c980058089000f5
:1025f0008c00ea00810f500001003d000006ea0057
:102600008c00ea00210c9800000646005c0c980043
:102610008b0f5600010034000b0678003c0c98002c
:10262000e800900018089000008040000c0178003d
:102630008a007800e6000700580890000c06500059
:102640004c0c98009a0037008c8f550018003d0004
:10265000008040000b0178008a007800dc00070051
:102660001808900000804500100c98008b0556005b
:102670002b0c9800d80890000100e00003003c00fb
:10268000881090000138a30006003200e800900096
:10269000e2c2b30082707800380890000000e800c1
:1026a000300c980058089000400c980080003700cb
:1026b000008040000c0178008a007800c400070008
:1026c0001808900000004600100c98008c855500fa
:1026d000d80890000100e00003003c008810900042
:1026e0000138a30005003200e8009000e2c2b30008
:1026f000827078000000e800100c980058089000e4
:10270000808f55000100340080057800e8009000bb
:1027100018089000008040008c0045000b017800f4
:10272000ab000700180890000b004000100c980048
:10273000580890008b0550002b0c98005c00370067
:1027400018089000e80090009a7078000000e800f7
:10275000100c9800d80890000100e00003003c0035
:10276000881090000138a30005003200e8009000b6
:10277000e2c2b300827078000000e800100c9800fc
:10278000580890000000e000100034008b05e900bc
:10279000808f55000100340080057800e80090002b
:1027a00018089000008040008a00e8000b017800c3
:1027b00087000700180890000b004000100c9800dc
:1027c000580890008b0550002b0c9800e8009000f2
:1027d0001808900000804000095878000005e800c3
:1027e0000c00e00004003500b1c2b30001487800dd
:1027f0008a06780004003700d1c2b300014878008f
:102800008a0678000c06ea00fd8557000007eb00f9
:1028100009003700a20020008c0078007280570069
:102820003b0007007fb097008fb89700816d78005c
:10283000000678000e07e8000c00e000f5ff3c0001
:10284000e10f570013003c0050c6b30080cf540086
:102850000300320050c4b30080cf540003003a009c
:102860008a06780000c3b300805e78000e00e000a6
:1028700008003a0000c3b300805e7800050037000e
:102880000e07e900fc80570061407f0002c3b300df
:10289000825e40000e00e000f9ff3c00e80090007e
:1028a0001808900000804000808656003d0c98007b
:1028b0000810900074006000f00f50000e003a0005
:1028c000980890007800900000804000a8089000d0
:1028d00001004000b808900001004000c8089000c6
:1028e00001004000f8089000810f500002003d00f8
:1028f00000805000000c98004f0778004f06be0083
:102900004f05be004f04be000f01b10000000600dd
:102910008002780001037800110009000203d8004a
:1029200080017800830a78000299b90002015300ff
:10293000920298000500780000000600404b8000dd
:102940000000e0000100320000000100609620005d
:1029500000000600881f78008a9fbe008c9fbe0082
:10296000000478000205be000406be000401be009b
:102970000a00be002c020700008cbe000c01be0045
:10298000530307000005550081855d002a04980067
:102990003b049800080078004f06be004f05be00bb
:1029a0004f0478000000060003003700b0cf10008d
:1029b000050032000201e900800178000200e00019
:1029c000faff3a000000050003007800000006004e
:1029d0008001780002003700b15978000201e90057
:1029e0000200e000fcff3a00000006000200370091
:1029f0000304e000060032000001780002007800c5
:102a0000b041780081cf5100f9ff3a000100370052
:102a10000001eb0002007800000006008000780052
:102a2000d10178000400280004826100f307b2009d
:102a300083087800120020000e003a009001780010
:102a40000300e0001b003200830878000008eb0060
:102a500012ff2f00070037008381410090027800a9
:102a6000cf2ade008588710090017800038841003c
:102a70000201e90091017800f5072000858f5100df
:102a8000f5ff360005003700cf19dd009002d100b8
:102a9000058871009108d1000201e80091017800d9
:102aa000f50f2000858f5100f7ff3e00f007200052
:102ab0008088610091087200020078000000060022
:102ac000889fbe0000047800e68440001900d00012
:102ad0004500de00f27f2000820f500010003a0017
:102ae000000ceb00990478006f8164002000200046
:102af0001b003a00210190000200e00018003a009b
:102b0000110190000200e00015003a0010002000c2
:102b10001100e000120032002000200010003700f9
:102b20000000e00004003a0001007800cc0007003b
:102b30000000e00008003c00f200280019016100dc
:102b400001fe2300810c710021c02f00010c400008
:102b50000080eb0002003700000ceb000000eb00ef
:102b60004f04be00000006000400fa00889fbe006b
:102b70008a9fbe008c1f7800000478000106780050
:102b8000f80d9000780090008085550008089000ae
:102b90008085550018089000808555002808900011
:102ba00080855500380890008085550048089000c1
:102bb000808555000002220090bf9f000003230083
:102bc000a0bf9f00081090000028a30015003a0045
:102bd0000b00e000130034000b0578008a04780035
:102be000e20f55000100360029002000c8019000c6
:102bf00009017800ee8057005800900003000100a2
:102c0000500498000000e0008c003200680890003a
:102c100009004000600c9800090555004240a900d9
:102c2000eeff3c00780190000200e0000c00340050
:102c3000c80190008c00780058009000030001004b
:102c4000500498008080eb000000e0007c0032001f
:102c5000e80890007800900000804000600c980028
:102c6000880c90000900e00011003400090578008c
:102c7000e28f5400010036002a002000c8019000b5
:102c80000a017800ec805700580090000300010012
:102c9000500498000000e0006800320068089000ce
:102ca0000a004000600c98008a845400edff370051
:102cb000180990000200e0000c003400c8019000e8
:102cc000e8009000580090000300010050049800b4
:102cd0008080eb000000e00059003200e80890001e
:102ce0001808900000804000600c9800a80c90002c
:102cf0000900e0001100340009057800e28f54005b
:102d0000010036002a002000c80190000a01780066
:102d1000ec80570058009000030001005004980018
:102d20000000e00045003200680890000a00400002
:102d3000600c98008a845400edff37003809900039
:102d40000200e0000e003400e80090001808900037
:102d500080804000c80190005800900003000100ee
:102d6000500498008080eb000000e0003400320046
:102d7000e80890003808900000804000600c98003f
:102d8000c80c90000900e00011003400090578002b
:102d9000e28f5400010036002a002000c801900094
:102da0000a017800ec8057005800900003000100f1
:102db000500498000000e0002000320068089000f5
:102dc0000a004000600c98008a845400edff370030
:102dd000081090008000eb000028a30018003200cb
:102de0000b00e000160034008b0478000905780021
:102df000e28f5400010036002a002000c801900034
:102e00000a017800ee80570058009000030001008e
:102e1000500498000000e0000800320068089000ac
:102e20000a004000600c98008a8454004240a900c7
:102e3000eeff3c008000eb00010037008080eb00db
:102e4000010078004f0678004f05be004f04be0019
:102e50000080fa000000060001087800000006006b
:102e6000e60040001101780005002800850261009d
:102e70006f01610082087800020032001200200019
:102e800011003700a0019000120020000300e000b4
:102e90000d003a00900190000300e0000a003a00a3
:102ea0001000e00008003a003600370064034000dc
:102eb0009608780080017800530b7800900978001c
:102ec0000408780070015100110278000400e0004d
:102ed000f6ff32001300370064024000140378004c
:102ee0004f33de0083814100830873008001780046
:102ef000d3037800cf3bde001403780006034300c1
:102f0000068a73001302780004024200100378005e
:102f10004f33de008609720090017800038841007b
:102f20000201e90091017800ef8f5100eaff3600bd
:102f30001000370080017800530378004f33dd0024
:102f40001002d1000408730064024000940378006a
:102f5000cf3bdd001303d100868973001103780095
:102f60004f33dd009401d100030a73009108d100b2
:102f70000201e80091017800ff8f5100edff3e0053
:102f8000ef8861009188720002007800000006005e
:102f90008f1fd100520207008f87e9000000e00078
:102fa00000000600809feb004d0207008f87e900bc
:102fb0000000e000000006002800fa00889fbe0024
:102fc0008a9fbe008c9fbe0003866b00d100070065
:102fd0006400e100440032006408e1004a0032006d
:102fe0006100e100460032006108e1004900320062
:102ff000ec0647006000b8003d02be003d03be0085
:10300000f48657006011b8003d04be003d05be00c7
:103010007d0320000b0037000000a0008d06e900b2
:10302000130032000402420085824a0006034b006e
:1030300087834b0000004000818048000201490066
:10304000838149000802520089825a000a035b000a
:103050008b835b00f0ff3b000802420089824a003c
:103060000a034b008b834b008d06e900edff3a000d
:103070008482720086827200f707b2008782720033
:1030800001003200150020001e0490003e0b90004d
:1030900006035400e63fb0000368a30007003200b7
:1030a0000000a7000500a0008301d1000281d30029
:1030b0008180d3000080d3000603e8008301d100a3
:1030c0000281d3008180d3000080d3000002eb0096
:1030d0000482d2006300070003f0a1000cf0a700f7
:1030e00003f0a0009f003700640247006408e1007d
:1030f000990032003400be003401be00f6ff3700f4
:103100006108e100940032006011b8006000b8006e
:10311000f1ff370003ff270002002000fbff37000c
:10312000889fbe008a9fbe008c1f780005f60700ae
:103130000cf6330003866c006450e1002e00320070
:103140006420e100330032006150e1002f003200c2
:103150006120e1003100320085855500eb07b000a9
:10316000090020000804200005003700080444007e
:1031700089844c000a0031000603430087834b001a
:103180000001530081815b00f8ff33000203be00a1
:103190000800a0000804440089844c00f6ff3900b0
:1031a000c639dd00830173000100320013002000e6
:1031b0008904d1000884d3000998a30005003200d7
:1031c0000800a7000300a0008904d1000884d300f0
:1031d0008b05e8008904d1000884d3000001eb00ce
:1031e0000281d2009cf5070001f0a1000cf0a700bd
:1031f00001f0a000e4f537006420e100e6f53200bc
:103200000801be000200be00f7ff37006120e100a8
:10321000e1f532006000b800f3ff37000000200045
:1032200001f82700f0ff3700839f68000100e000ed
:1032300002003d0060001000e08018000300e00084
:1032400002003d0060011100e0811900100107003b
:103250004f00e00002003b0060001000e08018001a
:10326000000006001800200057002000080453004a
:103270000d003d000600200097fc2f000740e100f4
:103280001e00340084827200610260008301d1005c
:103290000281d3008180d3000080d3000804e800bd
:1032a000f8ff3a0047002000610460000504740044
:1032b000040464000d00320061004000e08048001a
:1032c00060014900e081490003b8a5000700320011
:1032d0000603e8006538e10004003a008301d100ec
:1032e0000281d3008180d3000080d300f87f2000ca
:1032f0000830e10003003500080378006000b800e2
:103300006011b8004433dd00f300b20083017300a4
:1033100000000600680447000294be000094be004e
:10332000fc0447008694be008494be000900780027
:10333000b401070008007800b20107009900780086
:10334000814f70000b003b000800be008d0107009c
:103350004f00b10003003700f3ff2700f2ff2f00fa
:103360006110b9004f06be004f05be004f04be00fd
:103370000080fa0000000600810378005cf5070079
:103380000001be006000b8000478a30013003a00fa
:103390006220e10015003e000d0039008301d100dc
:1033a0000281d3008180d3008301d1000281d30048
:1033b0008180d3008301d1000281d3008180d300ba
:1033c0000538b000c42add00f300b200838172002a
:1033d00007f0a70003f0a00000000600f3ff27009d
:1033e000f2ff2f006110b900fbff370003ff270039
:1033f000f7ff37001400fa00889fbe008a9fbe00c6
:103400008c9fbe000004be000205be00680047009d
:103410000a90be000890be007a0107000070a70065
:103420000bf0a100304320009e02900080825200e9
:10343000b0fe2f000028e10011003d00b0fc2f007d
:103440000028e100150034001e0990008e0890004d
:103450007e0090000501b0000201d1008180d30000
:103460000080d3008502e800fbff3a000b00e0007b
:10347000bcff3b0060001000e0801800b9ff37007f
:10348000f0ff2f00f1ff27000b00e000b5ff3b002d
:103490000100280000002000b2ff37006000b800e3
:1034a000b0ff37004f89de00820178007c013700d1
:1034b0002800fa00889fbe008a9fbe008c9fbe0035
:1034c00003866b0093ff07000028a30064003a0006
:1034d0000128a30067003a000008a30062003a0038
:1034e0000108a30065003a001e009000be0890008d
:1034f00081064000ed3fb100f4805700ee019000de
:10350000111ab8008e099000311bb8009e09900076
:10351000311cb800511db800f48557004600070063
:10352000fe0190003a0007008b85e8003e0007008e
:103530008e09900040000700ee0190003400070063
:103540008b85e800380007008e09900040000700d6
:103550009e0990001b18b800890440000a854800a5
:10356000fe019000340007008b85e800380007005a
:10357000ee019000300007008e0990001b18b80083
:10358000890440000a8548000a98a30008003a0010
:103590000402420085824a0006034b0087834b00e9
:1035a00008044c0089844c000a054d008d06e90092
:1035b00084827200850273004c3add00850272003d
:1035c0000100320015002000443ade001400b20071
:1035d0004538de00cb45dd000b007000c540de0045
:1035e000cb4ddd008b8070004549de00cb55dd0002
:1035f0000b017100c551de000d03780019ff0700b3
:1036000003f0a1000cf0a70003f0a00055ff370065
:103610001b18b8008502400006834800e0834b0079
:1036200060044c00070037001b18b8000603400078
:1036300087834800faff37001b18b8008703400053
:1036400008844800e0844c0060054d00000006003e
:103650001b18b8000804400089844800faff3700ae
:103660000108a3003cff3a005800be005801be000c
:10367000e3ff37000008a30037ff3a000904780091
:10368000f9ff37000000000007f0a2001600370025
:103690006022b800060220000000d0008180d20025
:1036a0000482d2008582d2000000a00002025200f3
:1036b00083825a00030031000202420083824a00e2
:1036c0000000a1000603e900f3ff3a000000060035
:1036d000020ab900001bb9000200b80081004200d4
:1036e00081004300000006002800fa00889fbe0009
:1036f0008a9fbe008c9fbe000706780087866900ff
:103700000c003b00030478008704780008f0a10057
:1037100009f0a100840f5000858f5800860f5900d2
:10372000890f5c00030033000cf0a20001003a0096
:103730000cf0a100f7fe07006400e1005f0032001a
:10374000780147006408e100610032006c01470025
:10375000748557003200be001201be003a04be005c
:103760001a05be001e039000be0a90008503530098
:1037700006003d000004fd008104fd000205fd007f
:103780008305fd008703ea00050378000df8a30018
:103790000400320060041400e0841c0060051d0079
:1037a000e0851d006022b8007d0320000d38e10097
:1037b0008006eb000b0039004433dd00f300b2005b
:1037c0008301730039003700848272000d02780093
:1037d000e10664008b85d1000a85d3008984d3007b
:1037e0000884d3008703e900f7ff3b00080040008e
:1037f000898048000a0149008b81490004003b0090
:1038000060001000e080180060011900e0811900dc
:103810000358a300090032008d8272008482720076
:10382000610260008301d1000281d3008180d30056
:103830000080d3000603e8001b0037000348a30004
:1038400017003a000600e000170034000603e90004
:103850000d00a300000048008180480002014900db
:10386000838149000348a3000f003a000600e000ee
:10387000090034000603e900000040008180480090
:10388000020149008381490001003a000003eb0076
:103890000348a300f5ff32006022b80002003700a1
:1038a00084827200618266006efe070003f0a10050
:1038b0000cf0a70003f0a000aafe37006401470047
:1038c0006408e10002003a000df8a300a2fe3a00ed
:1038d0003200be001201be00a2fe37000000000050
:1038e000889fbe008a9fbe008c9fbe000404be005d
:1038f0000605be00809fbe00829fbe002f0007000d
:10390000040678000800be000a01be002b00070074
:10391000840678004f03be004f02be008d4f760034
:103920007fb0970013003300f0ff2f008b8f6b00e8
:1039300006003b000d0666000c00a7000a003700d9
:1039400007f0a600100020000a003700880f520080
:10395000898f5a008a0f5b008b8f5b000300390050
:103960001000200001003e000000200007f0a7002a
:103970000000ea004f06be004f05be004f04be0027
:1039800000000600e48240001078a3000700320027
:10399000640240001178a3003400be001401be0090
:1039a000040032000330a700000006003500be000e
:1039b0001501be000330a0000000060005ff27002f
:1039c00005826100070032000428e1000100320096
:1039d000240005000600070001003a00440005002d
:1039e0000408050002000700f9ff3a001400050072
:1039f0006f82610081027000850271008502720091
:103a000000000600800078005002be005003be0097
:103a10004439de00f700b200f37f200003016100ab
:103a2000090032000218e10016003a008501720018
:103a300083017300838173000008200015003a00a1
:103a400040002000130037008501720083017300dd
:103a50008381730005003a0004a8be0006a8be00da
:103a6000100020000b0037000201e90004024200b0
:103a700085824a0006034b0087834b000748a3005a
:103a8000f9ff32000740a00004a8be0006a8be004f
:103a9000200020008000980092009800000006009e
:103aa000881f7800030478000300e00007003d0051
:103ab00060001000e080180060011900e08119002a
:103ac00002003b0001f02d00030037000400070056
:103ad00008f0a70003f0a0004f04780000000600e3
:103ae000889fbe0000827000040271000482710091
:103af0002400320036432000c50020008383cf001d
:103b00000a0039000541b1008283cf000700390067
:103b10000541b1008183cf00040039000541b100a7
:103b20008083cf00010039000541b10085c35300f7
:103b30006022b800120032000a003b00848272004a
:103b4000610260008301d1000281d3008180d30033
:103b50000080d3000603e8008743e800f7ff3a003f
:103b60000700370000004000818048000201490042
:103b7000838149000603e9008743e900f9ff3a0021
:0c3b8000b8fd07004f04be000000060066
:020000040000fa
:103b8c000a200000647200006976000065200000c5
:103b9c003d200000252e000031650000200a0000a9
:103bac0000000000252e000032660000000000001e
:020000040000fa
:103bbc000000fa00cda2a900d822a900d862a90061
:103bcc00d8a2a900d902a900d222a900d242a900e8
:103bdc00d262a900d202a800c682a800c6a2a80080
:103bec000080fa00000006000000fa00dd02a800c8
:103bfc00dca2a900dc22a800dc62a9000080fa008b
:103c0c00000006000000fa00f0ff270030098800d1
:103c1c0004003700dd02a800dca2a900dc22a80009
:103c2c00dc62a90031098000004e2700808f500013
:103c3c00f8ff3e00490007000080fa000000060073
:103c4c000000fa00f0ff270030098800040037005c
:103c5c00dd02a800dca2a900dc22a800dc62a9001d
:103c6c003109800010a72700808f5000f8ff3e001c
:103c7c003a0007000080fa00000006000000fa007d
:103c8c00dd02a900dca2a800dc22a900dc62a800ed
:103c9c000080fa00000006000000fa00f0ff270088
:103cac003009880004003700dd02a800dca2a9005e
:103cbc00dc22a900dc62a8003109800090d6270024
:103ccc00808f5000f8ff3e00240007000080fa00af
:103cdc00000006000400fa00f0ff270030098800fd
:103cec005029280001002000008fbe00040037007e
:103cfc00dd02a900dca2a800dc22a800dc62a9007d
:103d0c00300980008000eb00be0f5000ae8f5800d1
:103d1c00f7ff3900110007000080fa0000000600d0
:103d2c000000fa00f0ff270030098800040037007b
:103d3c00dd02a800dca2a900dc22a900dc62a8003c
:103d4c003109800080942700808f5000f8ff3e00de
:103d5c00020007000080fa00000006000000fa00d4
:103d6c00dd02a900dca2a900dc22a900dc62a9000a
:103d7c000080fa00000006000200fa00000f780034
:103d8c001e00780000407800614060000080fb005d
:103d9c006100600000004000b2168000d1ff2f00cf
:103dac008100610001007000b01688000080fa00ec
:103dbc00000006000200fa00000f78001e007800d8
:103dcc0000407800614060000080fb0061006000f2
:103ddc004200dd00b2168000b1ff2f0081006100af
:103dec0001007000b01688000080fa000000060088
:103dfc000200fa00000f78001e00780000407800e6
:103e0c00614060000080fb00610060004300dd0049
:103e1c00b216800071ff2f0081006100010070005c
:103e2c00b01688000080fa00000006008e00fa0030
:103e3c00881f780050879800618798000000200048
:103e4c00011a2400008fbe000000200001f823009e
:103e5c00200798003107980000002000011a240068
:103e6c004007980051079800e0438000f143800020
:103e7c0050f20700600798006e009000cf80de00c3
:103e8c006df207000001be005e809000ee80900095
:103e9c00e6f1070070079800010f98001e01be00a4
:103eac007e0090008e089000bbf20700100f980067
:103ebc00210f980090438000a143800018c0b300ec
:103ecc0002002000a36f240038f207000000e0007d
:103edc0001003c000044eb000804e0000400320048
:103eec0000002000a16f240090438800a1438800ab
:103efc0090438000a143800018c0b3000200200052
:103f0c00a36f2c0027f207000000e0000100350031
:103f1c000044eb000804e000040032000000200024
:103f2c00a16f2c0090438800a1438800904380002f
:103f3c00a14380007e0190008e099000bcf1070027
:103f4c0090438800a143880090438000a1438000e7
:103f5c002e019000be0190008ff20700300f9800e8
:103f6c00410f9800b0438000c14380000001be00a7
:103f7c007e0090008e089000acf10700500f980066
:103f8c00610f98004e019000de0190005e089000d9
:103f9c00ee08900080f20700700f9800011798004f
:103fac007e0190008e099000b2438800c3438800c4
:103fbc003e099000ce0990001e089000ae089000bb
:103fcc009bf107007e0990008e11900098f107007c
:103fdc001017980021179800d0438000ea0f50006a
:103fec000e003a00620220000e0141001e109000eb
:103ffc00ae109000809fbe0060dc2900801f78000e
:10400c0002007800f6f60700e687570060022000f1
:10401c000e004000980107007a28ef00d043800082
:10402c000000e800d043880018c0b3006011b8004d
:10403c001e109000ae109000dcf107000000e000b4
:10404c0001003c000044eb000804e00008003200d2
:10405c001e109000ae109000d6f107000000780002
:10406c002103200000805000bc0207001000370024
:10407c0018c0b3006011b8001e109000ae10900074
:10408c00c8f107000000e000010035000044eb001f
:10409c000804e000060032001e109000ae109000e4
:1040ac00c4f10700000078002003b000ab02070049
:1040bc004f0478000080fa00000006000600fa00a9
:1040cc00881f7800bafe070085020700ee02070081
:1040dc0020010700440107003d020700d002070041
:1040ec000000eb00000f78000000eb0010079800b8
:1040fc0010002000200798002e0090001eff0700e3
:10410c002e0090002bff07002e00900038ff0700b8
:10411c000100370000000000a01680006100600064
:10412c000000e00007003a001e0078000000e000ec
:10413c0004003a0010002000000f7800100020004e
:10414c00100798001e0078000000e0000600320006
:10415c00a0168000610060000000e0000200320048
:10416c000000eb00000f78001e0090000000e00043
:10417c00e8ff3200803e20008c020700f10037007f
:10418c00401480008000eb00aef1070082862e0008
:10419c00f3b9230000f2070018c0b300020020009e
:1041ac0003f823007ff107000000e0000100350058
:1041bc000044eb000804e0001100320010148000f1
:1041cc008000eb009ff1070082862e00f3b92300dc
:1041dc00f1f1070018c0b3000200200003f823001f
:1041ec0070f107000000e000010035000044eb0016
:1041fc000804e000020032007bfe0700d10037000b
:10420c00401480008000eb008ef1070082862e00a7
:10421c00f3b92300e0f1070018c0b300020020003e
:10422c000300240061f107000000e00001003c00e5
:10423c000044eb000804e0000f003a00101480006a
:10424c008000eb007ff1070082862e00f3b923007b
:10425c00d1f1070018c0b3000200200003002400b5
:10426c0052f107000000e00001003c000044eb00ac
:10427c000804e00011003200001480008000eb0004
:10428c0070f1070082862e00f3b92300c2f10700fb
:10429c0018c0b300020020000300240043f1070003
:1042ac000000e00001003c000044eb000804e000ca
:1042bc000200320078fe0700a20037004014800094
:1042cc008000eb005ff1070082862e00f3b923001b
:1042dc00b1f1070018c0b3000200200003f823005e
:1042ec0032f107000000e00001003c000044eb004c
:1042fc000804e0000f003a00101480008000eb006e
:10430c0050f1070082862e00f3b92300a2f10700ba
:10431c0018c0b3000200200003f8230023f10700ab
:10432c000000e00001003c000044eb000804e00049
:10433c0011003200501480008000eb0041f10700a6
:10434c0082862e00f3b9230093f1070018c0b30046
:10435c00020020000300240014f107000000e0001c
:10436c0001003c000044eb000804e00002003200b5
:10437c0058fe070073003700401480008000eb00eb
:10438c0030f1070082862e00f3b9230082f107007a
:10439c0018c0b3000200200003f8230003f107004b
:1043ac000000e00001003c000044eb000804e000c9
:1043bc002f003200101480008000eb0021f1070068
:1043cc0082862e00f3b9230073f1070018c0b300e6
:1043dc000200200003f82300f4f007000000e000c6
:1043ec0001003c000044eb000804e0002000320017
:1043fc00001480008000eb0012f1070082862e0072
:10440c00f3b9230064f1070018c0b30002002000c8
:10441c0003002400e5f007000000e00001003c0070
:10442c000044eb000804e00011003200501480003e
:10443c008000eb0003f1070082862e00f3b9230005
:10444c0055f1070018c0b30002002000030024003f
:10445c00d6f007000000e00001003c000044eb0037
:10446c000804e000020032002dfe07003500370082
:10447c00401480008000eb00f2f0070082862e00d2
:10448c00f3b9230044f1070018c0b3000200200068
:10449c0003f82300c5f007000000e00001003c0019
:1044ac000044eb000804e0001100320010148000fe
:1044bc008000eb00e3f0070082862e00f3b92300a6
:1044cc0035f1070018c0b3000200200003f82300e8
:1044dc00b6f007000000e00001003c000044eb00d7
:1044ec000804e00002003200ebfd07001500370065
:1044fc001e0078000000e00007003200a0168000cb
:10450c00610060000000e000030032000000eb00de
:10451c00000f78000b003700a016800061006000cf
:10452c000000e00007003a001e0078000000e000e8
:10453c0004003a0010002000000f78000000eb008f
:10454c00100798001e0090000000e0000cff3a00dd
:10455c00f1fe37000000fa000de2a9000001200076
:10456c00a01088000cc2a9000ce2a9000ca2a900a2
:10457c006110800090ff2f000080600060108800a8
:10458c000c02a90071108000f0f32f000080600075
:10459c00701088008520a900c1048000f0f82f005d
:1045ac00808060000003200001007000c0048800bf
:1045bc008d20a8008540a900c1048000f08f2f0039
:1045cc00808060000030200001007000c004880072
:1045dc008d40a8000f42a8000de2a8000f42a800d1
:1045ec000080fa00000006000000fa0017e2a900a3
:1045fc0000012000f010880016c2a90016e2a900e4
:10460c0016a2a900b110800090ff2f00008060005e
:10461c00b01088001602a900c1108000f0f32f0022
:10462c0000806000c01088008700a9000105800090
:10463c0080ff2f00008060003000b3000005880070
:10464c008f00a8008720a90001058000f0f82f003a
:10465c0080806000000320000100700000058800cd
:10466c008f20a8001942a80017e2a8001942a80040
:10467c000080fa00000006000200fa00000f78002b
:10468c001e00780063f10700704388007028ef006b
:10469c000e00370000000000c11080000020200038
:1046ac00008060000000e000fbff3a0080438000c7
:1046bc001e004000104078000000fb00d010880065
:1046cc00804380000000e800804388008143800024
:1046dc0070438000808f5000eeff35000080fa00a0
:1046ec00000006000200fa00004f7800e0c3b3009f
:1046fc009e40780080cf50000f003a002040800090
:10470c00e10f50000c003a006011b8008000eb0083
:10471c006080200045f107000040880011408800af
:10472c00420620008000eb006080200028f107008a
:10473c000428ef006a28ef0020408000e10f5000b1
:10474c001e003a0051438000608020000080400031
:10475c001e4878005143800060802000008040009b
:10476c0090407800f0c2b30080cf500007003400b6
:10477c005143800060802000008040009040780011
:10478c0090c3b30080cf5000090034005143800027
:10479c00608020000080400090407800e0c3b300af
:1047ac0080cf5000020032001000200060438800cf
:1047bc00504380000000e80050438800c0c3b300a1
:1047cc009e40780080cf500007003a0020408000c7
:1047dc000000e00004003a00100020002040880097
:1047ec006a28ef006c28ef0051438000400620003f
:1047fc00808f500001003a006a28ef000080fa0018
:04480c0000000600a2
:020000040000fa
:10481000720800000a000000000000008608000086
:1048200004000000000000007c0800000a000000f6
:1048300000000000000800007200000000000000fe
:104840008a08000002000000000000008c08000040
:104850000200000000000000140900002000000019
:10486000020000000a000000006400000000e800f0
:10487000030000001027000000a086000100400097
:10488000420f0000809698000000e100f50500004e
:10489000e60800002e0000000200000000010200f7
:1048a0000304050006070800090a0b000c0d0e00a2
:1048b0000f0a0b000c0d0e000f30310032333400a4
:1048c000353637003839610062636400656641003f
:1048d0004243440045460000000000004e0900002d
:1048e000180000000200000000002000410000004d
:1048f000c8420000401c460020bcbe004cca1b0041
:104900000e5aae00c59d7400340900001a00000064
:1049100002000000686a6c00747a4c00000001001c
:104920000002000004000800001000000000200049
:104930002b2d2300300000008e08000058000000de
:10494000020000006e616e00004e41004e006900e2
:104950006e660000494e46000000000000000000a6
:10496000002440000000000000000000594000004a
:10497000000000000088c300400000000000840028
:10498000d79741000080e0003779c300414317000a
:104990006e05b500b5b8930046f5f9003fe9030090
:1049a0004f384d00321d3000f9487700825a3c00e4
:1049b000bf737f00dd4f1500750000006a0900001d
:1049c0000200000002000000300000006609000044
:0c49d000040000000000000000000000d7
:020000040000fa
:1049dc000000fa00a1e2a9000080eb00401588005d
:1049ec00a802a900a822a900a842a900a8c2a9004f
:1049fc00a8e2a900a902a900aa02a800aa22a8005c
:104a0c00aa42a800aac2a800aae2a800ab02a80069
:104a1c00a342a800a682a9003115800000ff2f0038
:104a2c000080600030158800a062a900111580007c
:104a3c00f0cf2f0000806000101588001115800049
:104a4c0030fc2f00008060004001b300101588007e
:104a5c00a202a900a222a90011158000f0ff2100da
:104a6c00008060001015880001158000f0cf2f0029
:104a7c000080600000158800a4e2a90021158000c8
:104a8c00f003200001007000201588002115800023
:104a9c0000f0210001007000201588000115800035
:104aac00000e20000100700000158800a022a80054
:104abc00a042a9008560a900c1048000f0ff280075
:104acc00808060000000250001007000c004880098
:104adc008d60a800a1e2a8000080fa00000006008a
:104aec000000fa00c1e1a900010e800030ff2f0088
:104afc00008060000020a000000e8800210e8000c5
:104b0c000000280080806000803e200001007000c2
:104b1c00200e8800c901a800c801a800c881a900fe
:104b2c00c921a800c821a800c8a1a900c941a80092
:104b3c00c841a800c8c1a900c1e1a800803e20005e
:104b4c00b00e8800803e2000c00e8800803e200001
:104b5c00d00e88000080fa00000006000200fa0067
:104b6c00000f78001e0078007400b9000000780077
:104b7c004044880040448000b00e88000080fa0059
:104b8c00000006000200fa00000f78001e007800fa
:104b9c007400b90000007800304488003044800074
:104bac00c00e88000080fa00000006000600fa0023
:104bbc00200798000000eb00000f78000b00370076
:104bcc000000eb0010079800030037001e00900057
:104bdc000000e800100798009e009000507a20001a
:104bec00808f5000f9ff34001e0fe8002e0090005b
:104bfc009e007800808f5000f1ff35000080fa0095
:104c0c00000006000000fa00d1a2a800803e20009f
:104c1c00e6ff0700d1a2a9000080fa000000060000
:104c2c000000fa00a8a2a800a882a80023a1a8004e
:104c3c00110980000070200001007000100988002c
:104c4c0022e1a90022c1a9002241a9002221a90028
:104c5c0024e1a9000080eb0040098800f0ff270048
:104c6c00300988008900a9009100a8004105800046
:104c7c0080ff2f00008060005000b30040058800ca
:104c8c000080fa00000006000000fa0005e1a9000f
:104c9c000421ef000021ef00210880000003200018
:104cac0001007000200888001027200010088800e0
:104cbc000421a90005a1a80004c1a9008460a900d1
:104ccc00a1048000f0ff2800808060000000230019
:104cdc0001007000a00488008c60a80005e1a80009
:084cec000080fa000000060040
:020000040000fa
:0200000401f009
:04000000f6bf000047
:020000040000fa
:0200000401f009
:04000400ff7f00007a
:020000040000fa
:0200000401f009
:040008007ff900007c
:00000001FF
